{
	"e-learning.sol": {
		"ElearningPlatform": {
			"abi": [
				{
					"anonymous": false,
					"inputs": [
						{
							"indexed": true,
							"internalType": "address",
							"name": "student",
							"type": "address"
						},
						{
							"indexed": false,
							"internalType": "string",
							"name": "courseName",
							"type": "string"
						},
						{
							"indexed": false,
							"internalType": "string",
							"name": "credentialHash",
							"type": "string"
						}
					],
					"name": "CredentialIssued",
					"type": "event"
				},
				{
					"anonymous": false,
					"inputs": [
						{
							"indexed": true,
							"internalType": "address",
							"name": "student",
							"type": "address"
						},
						{
							"indexed": false,
							"internalType": "uint256",
							"name": "amount",
							"type": "uint256"
						}
					],
					"name": "TokensRewarded",
					"type": "event"
				},
				{
					"inputs": [
						{
							"internalType": "address",
							"name": "student",
							"type": "address"
						}
					],
					"name": "checkTokenBalance",
					"outputs": [
						{
							"internalType": "uint256",
							"name": "",
							"type": "uint256"
						}
					],
					"stateMutability": "view",
					"type": "function"
				},
				{
					"inputs": [
						{
							"internalType": "address",
							"name": "",
							"type": "address"
						}
					],
					"name": "credentials",
					"outputs": [
						{
							"internalType": "string",
							"name": "courseName",
							"type": "string"
						},
						{
							"internalType": "string",
							"name": "studentName",
							"type": "string"
						},
						{
							"internalType": "string",
							"name": "credentialHash",
							"type": "string"
						},
						{
							"internalType": "bool",
							"name": "isValid",
							"type": "bool"
						}
					],
					"stateMutability": "view",
					"type": "function"
				},
				{
					"inputs": [
						{
							"internalType": "address",
							"name": "student",
							"type": "address"
						},
						{
							"internalType": "string",
							"name": "courseName",
							"type": "string"
						},
						{
							"internalType": "string",
							"name": "studentName",
							"type": "string"
						},
						{
							"internalType": "string",
							"name": "credentialHash",
							"type": "string"
						}
					],
					"name": "issueCredential",
					"outputs": [],
					"stateMutability": "nonpayable",
					"type": "function"
				},
				{
					"inputs": [
						{
							"internalType": "address",
							"name": "student",
							"type": "address"
						},
						{
							"internalType": "uint256",
							"name": "amount",
							"type": "uint256"
						}
					],
					"name": "rewardTokens",
					"outputs": [],
					"stateMutability": "nonpayable",
					"type": "function"
				},
				{
					"inputs": [
						{
							"internalType": "address",
							"name": "",
							"type": "address"
						}
					],
					"name": "tokenBalance",
					"outputs": [
						{
							"internalType": "uint256",
							"name": "",
							"type": "uint256"
						}
					],
					"stateMutability": "view",
					"type": "function"
				},
				{
					"inputs": [
						{
							"internalType": "address",
							"name": "student",
							"type": "address"
						}
					],
					"name": "verifyCredential",
					"outputs": [
						{
							"internalType": "string",
							"name": "",
							"type": "string"
						},
						{
							"internalType": "string",
							"name": "",
							"type": "string"
						},
						{
							"internalType": "string",
							"name": "",
							"type": "string"
						},
						{
							"internalType": "bool",
							"name": "",
							"type": "bool"
						}
					],
					"stateMutability": "view",
					"type": "function"
				}
			],
			"devdoc": {
				"kind": "dev",
				"methods": {},
				"version": 1
			},
			"evm": {
				"assembly": "    /* \"e-learning.sol\":63:1395  contract ElearningPlatform {... */\n  mstore(0x40, 0x80)\n  callvalue\n  dup1\n  iszero\n  tag_1\n  jumpi\n  0x00\n  dup1\n  revert\ntag_1:\n  pop\n  dataSize(sub_0)\n  dup1\n  dataOffset(sub_0)\n  0x00\n  codecopy\n  0x00\n  return\nstop\n\nsub_0: assembly {\n        /* \"e-learning.sol\":63:1395  contract ElearningPlatform {... */\n      mstore(0x40, 0x80)\n      callvalue\n      dup1\n      iszero\n      tag_1\n      jumpi\n      0x00\n      dup1\n      revert\n    tag_1:\n      pop\n      jumpi(tag_2, lt(calldatasize, 0x04))\n      shr(0xe0, calldataload(0x00))\n      dup1\n      0x049a380d\n      eq\n      tag_3\n      jumpi\n      dup1\n      0x126cbe60\n      eq\n      tag_4\n      jumpi\n      dup1\n      0x6016dd4a\n      eq\n      tag_5\n      jumpi\n      dup1\n      0x70dd0dbc\n      eq\n      tag_6\n      jumpi\n      dup1\n      0x81a4af15\n      eq\n      tag_7\n      jumpi\n      dup1\n      0xeedc966a\n      eq\n      tag_8\n      jumpi\n    tag_2:\n      0x00\n      dup1\n      revert\n        /* \"e-learning.sol\":521:821  function issueCredential(address student, string memory courseName, string memory studentName, string memory credentialHash) public {... */\n    tag_3:\n      tag_9\n      0x04\n      dup1\n      calldatasize\n      sub\n      dup2\n      add\n      swap1\n      tag_10\n      swap2\n      swap1\n      tag_11\n      jump\t// in\n    tag_10:\n      tag_12\n      jump\t// in\n    tag_9:\n      stop\n        /* \"e-learning.sol\":1271:1392  function checkTokenBalance(address student) public view returns (uint256) {... */\n    tag_4:\n      tag_13\n      0x04\n      dup1\n      calldatasize\n      sub\n      dup2\n      add\n      swap1\n      tag_14\n      swap2\n      swap1\n      tag_15\n      jump\t// in\n    tag_14:\n      tag_16\n      jump\t// in\n    tag_13:\n      mload(0x40)\n      tag_17\n      swap2\n      swap1\n      tag_18\n      jump\t// in\n    tag_17:\n      mload(0x40)\n      dup1\n      swap2\n      sub\n      swap1\n      return\n        /* \"e-learning.sol\":243:292  mapping(address => Credential) public credentials */\n    tag_5:\n      tag_19\n      0x04\n      dup1\n      calldatasize\n      sub\n      dup2\n      add\n      swap1\n      tag_20\n      swap2\n      swap1\n      tag_15\n      jump\t// in\n    tag_20:\n      tag_21\n      jump\t// in\n    tag_19:\n      mload(0x40)\n      tag_22\n      swap5\n      swap4\n      swap3\n      swap2\n      swap1\n      tag_23\n      jump\t// in\n    tag_22:\n      mload(0x40)\n      dup1\n      swap2\n      sub\n      swap1\n      return\n        /* \"e-learning.sol\":829:1096  function verifyCredential(address student) public view returns (string memory, string memory, string memory, bool) {... */\n    tag_6:\n      tag_24\n      0x04\n      dup1\n      calldatasize\n      sub\n      dup2\n      add\n      swap1\n      tag_25\n      swap2\n      swap1\n      tag_15\n      jump\t// in\n    tag_25:\n      tag_26\n      jump\t// in\n    tag_24:\n      mload(0x40)\n      tag_27\n      swap5\n      swap4\n      swap3\n      swap2\n      swap1\n      tag_23\n      jump\t// in\n    tag_27:\n      mload(0x40)\n      dup1\n      swap2\n      sub\n      swap1\n      return\n        /* \"e-learning.sol\":1104:1263  function rewardTokens(address student, uint256 amount) public {... */\n    tag_7:\n      tag_28\n      0x04\n      dup1\n      calldatasize\n      sub\n      dup2\n      add\n      swap1\n      tag_29\n      swap2\n      swap1\n      tag_30\n      jump\t// in\n    tag_29:\n      tag_31\n      jump\t// in\n    tag_28:\n      stop\n        /* \"e-learning.sol\":299:346  mapping(address => uint256) public tokenBalance */\n    tag_8:\n      tag_32\n      0x04\n      dup1\n      calldatasize\n      sub\n      dup2\n      add\n      swap1\n      tag_33\n      swap2\n      swap1\n      tag_15\n      jump\t// in\n    tag_33:\n      tag_34\n      jump\t// in\n    tag_32:\n      mload(0x40)\n      tag_35\n      swap2\n      swap1\n      tag_18\n      jump\t// in\n    tag_35:\n      mload(0x40)\n      dup1\n      swap2\n      sub\n      swap1\n      return\n        /* \"e-learning.sol\":521:821  function issueCredential(address student, string memory courseName, string memory studentName, string memory credentialHash) public {... */\n    tag_12:\n        /* \"e-learning.sol\":687:744  Credential(courseName, studentName, credentialHash, true) */\n      mload(0x40)\n      dup1\n      0x80\n      add\n      0x40\n      mstore\n      dup1\n        /* \"e-learning.sol\":698:708  courseName */\n      dup5\n        /* \"e-learning.sol\":687:744  Credential(courseName, studentName, credentialHash, true) */\n      dup2\n      mstore\n      0x20\n      add\n        /* \"e-learning.sol\":710:721  studentName */\n      dup4\n        /* \"e-learning.sol\":687:744  Credential(courseName, studentName, credentialHash, true) */\n      dup2\n      mstore\n      0x20\n      add\n        /* \"e-learning.sol\":723:737  credentialHash */\n      dup3\n        /* \"e-learning.sol\":687:744  Credential(courseName, studentName, credentialHash, true) */\n      dup2\n      mstore\n      0x20\n      add\n        /* \"e-learning.sol\":739:743  true */\n      0x01\n        /* \"e-learning.sol\":687:744  Credential(courseName, studentName, credentialHash, true) */\n      iszero\n      iszero\n      dup2\n      mstore\n      pop\n        /* \"e-learning.sol\":664:675  credentials */\n      0x00\n        /* \"e-learning.sol\":664:684  credentials[student] */\n      dup1\n        /* \"e-learning.sol\":676:683  student */\n      dup7\n        /* \"e-learning.sol\":664:684  credentials[student] */\n      0xffffffffffffffffffffffffffffffffffffffff\n      and\n      0xffffffffffffffffffffffffffffffffffffffff\n      and\n      dup2\n      mstore\n      0x20\n      add\n      swap1\n      dup2\n      mstore\n      0x20\n      add\n      0x00\n      keccak256\n        /* \"e-learning.sol\":664:744  credentials[student] = Credential(courseName, studentName, credentialHash, true) */\n      0x00\n      dup3\n      add\n      mload\n      dup2\n      0x00\n      add\n      swap1\n      dup2\n      tag_37\n      swap2\n      swap1\n      tag_38\n      jump\t// in\n    tag_37:\n      pop\n      0x20\n      dup3\n      add\n      mload\n      dup2\n      0x01\n      add\n      swap1\n      dup2\n      tag_39\n      swap2\n      swap1\n      tag_38\n      jump\t// in\n    tag_39:\n      pop\n      0x40\n      dup3\n      add\n      mload\n      dup2\n      0x02\n      add\n      swap1\n      dup2\n      tag_40\n      swap2\n      swap1\n      tag_38\n      jump\t// in\n    tag_40:\n      pop\n      0x60\n      dup3\n      add\n      mload\n      dup2\n      0x03\n      add\n      exp(0x0100, 0x00)\n      dup2\n      sload\n      dup2\n      0xff\n      mul\n      not\n      and\n      swap1\n      dup4\n      iszero\n      iszero\n      mul\n      or\n      swap1\n      sstore\n      pop\n      swap1\n      pop\n      pop\n        /* \"e-learning.sol\":777:784  student */\n      dup4\n        /* \"e-learning.sol\":760:813  CredentialIssued(student, courseName, credentialHash) */\n      0xffffffffffffffffffffffffffffffffffffffff\n      and\n      0x5e47cc5e78fcec6fad5ce55daef3ac5f5aaf88a7910c1b7bffcf5170dd15232a\n        /* \"e-learning.sol\":786:796  courseName */\n      dup5\n        /* \"e-learning.sol\":798:812  credentialHash */\n      dup4\n        /* \"e-learning.sol\":760:813  CredentialIssued(student, courseName, credentialHash) */\n      mload(0x40)\n      tag_41\n      swap3\n      swap2\n      swap1\n      tag_42\n      jump\t// in\n    tag_41:\n      mload(0x40)\n      dup1\n      swap2\n      sub\n      swap1\n      log2\n        /* \"e-learning.sol\":521:821  function issueCredential(address student, string memory courseName, string memory studentName, string memory credentialHash) public {... */\n      pop\n      pop\n      pop\n      pop\n      jump\t// out\n        /* \"e-learning.sol\":1271:1392  function checkTokenBalance(address student) public view returns (uint256) {... */\n    tag_16:\n        /* \"e-learning.sol\":1336:1343  uint256 */\n      0x00\n        /* \"e-learning.sol\":1363:1375  tokenBalance */\n      0x01\n        /* \"e-learning.sol\":1363:1384  tokenBalance[student] */\n      0x00\n        /* \"e-learning.sol\":1376:1383  student */\n      dup4\n        /* \"e-learning.sol\":1363:1384  tokenBalance[student] */\n      0xffffffffffffffffffffffffffffffffffffffff\n      and\n      0xffffffffffffffffffffffffffffffffffffffff\n      and\n      dup2\n      mstore\n      0x20\n      add\n      swap1\n      dup2\n      mstore\n      0x20\n      add\n      0x00\n      keccak256\n      sload\n        /* \"e-learning.sol\":1356:1384  return tokenBalance[student] */\n      swap1\n      pop\n        /* \"e-learning.sol\":1271:1392  function checkTokenBalance(address student) public view returns (uint256) {... */\n      swap2\n      swap1\n      pop\n      jump\t// out\n        /* \"e-learning.sol\":243:292  mapping(address => Credential) public credentials */\n    tag_21:\n      mstore(0x20, 0x00)\n      dup1\n      0x00\n      mstore\n      keccak256(0x00, 0x40)\n      0x00\n      swap2\n      pop\n      swap1\n      pop\n      dup1\n      0x00\n      add\n      dup1\n      sload\n      tag_44\n      swap1\n      tag_45\n      jump\t// in\n    tag_44:\n      dup1\n      0x1f\n      add\n      0x20\n      dup1\n      swap2\n      div\n      mul\n      0x20\n      add\n      mload(0x40)\n      swap1\n      dup2\n      add\n      0x40\n      mstore\n      dup1\n      swap3\n      swap2\n      swap1\n      dup2\n      dup2\n      mstore\n      0x20\n      add\n      dup3\n      dup1\n      sload\n      tag_46\n      swap1\n      tag_45\n      jump\t// in\n    tag_46:\n      dup1\n      iszero\n      tag_47\n      jumpi\n      dup1\n      0x1f\n      lt\n      tag_48\n      jumpi\n      0x0100\n      dup1\n      dup4\n      sload\n      div\n      mul\n      dup4\n      mstore\n      swap2\n      0x20\n      add\n      swap2\n      jump(tag_47)\n    tag_48:\n      dup3\n      add\n      swap2\n      swap1\n      0x00\n      mstore\n      keccak256(0x00, 0x20)\n      swap1\n    tag_49:\n      dup2\n      sload\n      dup2\n      mstore\n      swap1\n      0x01\n      add\n      swap1\n      0x20\n      add\n      dup1\n      dup4\n      gt\n      tag_49\n      jumpi\n      dup3\n      swap1\n      sub\n      0x1f\n      and\n      dup3\n      add\n      swap2\n    tag_47:\n      pop\n      pop\n      pop\n      pop\n      pop\n      swap1\n      dup1\n      0x01\n      add\n      dup1\n      sload\n      tag_50\n      swap1\n      tag_45\n      jump\t// in\n    tag_50:\n      dup1\n      0x1f\n      add\n      0x20\n      dup1\n      swap2\n      div\n      mul\n      0x20\n      add\n      mload(0x40)\n      swap1\n      dup2\n      add\n      0x40\n      mstore\n      dup1\n      swap3\n      swap2\n      swap1\n      dup2\n      dup2\n      mstore\n      0x20\n      add\n      dup3\n      dup1\n      sload\n      tag_51\n      swap1\n      tag_45\n      jump\t// in\n    tag_51:\n      dup1\n      iszero\n      tag_52\n      jumpi\n      dup1\n      0x1f\n      lt\n      tag_53\n      jumpi\n      0x0100\n      dup1\n      dup4\n      sload\n      div\n      mul\n      dup4\n      mstore\n      swap2\n      0x20\n      add\n      swap2\n      jump(tag_52)\n    tag_53:\n      dup3\n      add\n      swap2\n      swap1\n      0x00\n      mstore\n      keccak256(0x00, 0x20)\n      swap1\n    tag_54:\n      dup2\n      sload\n      dup2\n      mstore\n      swap1\n      0x01\n      add\n      swap1\n      0x20\n      add\n      dup1\n      dup4\n      gt\n      tag_54\n      jumpi\n      dup3\n      swap1\n      sub\n      0x1f\n      and\n      dup3\n      add\n      swap2\n    tag_52:\n      pop\n      pop\n      pop\n      pop\n      pop\n      swap1\n      dup1\n      0x02\n      add\n      dup1\n      sload\n      tag_55\n      swap1\n      tag_45\n      jump\t// in\n    tag_55:\n      dup1\n      0x1f\n      add\n      0x20\n      dup1\n      swap2\n      div\n      mul\n      0x20\n      add\n      mload(0x40)\n      swap1\n      dup2\n      add\n      0x40\n      mstore\n      dup1\n      swap3\n      swap2\n      swap1\n      dup2\n      dup2\n      mstore\n      0x20\n      add\n      dup3\n      dup1\n      sload\n      tag_56\n      swap1\n      tag_45\n      jump\t// in\n    tag_56:\n      dup1\n      iszero\n      tag_57\n      jumpi\n      dup1\n      0x1f\n      lt\n      tag_58\n      jumpi\n      0x0100\n      dup1\n      dup4\n      sload\n      div\n      mul\n      dup4\n      mstore\n      swap2\n      0x20\n      add\n      swap2\n      jump(tag_57)\n    tag_58:\n      dup3\n      add\n      swap2\n      swap1\n      0x00\n      mstore\n      keccak256(0x00, 0x20)\n      swap1\n    tag_59:\n      dup2\n      sload\n      dup2\n      mstore\n      swap1\n      0x01\n      add\n      swap1\n      0x20\n      add\n      dup1\n      dup4\n      gt\n      tag_59\n      jumpi\n      dup3\n      swap1\n      sub\n      0x1f\n      and\n      dup3\n      add\n      swap2\n    tag_57:\n      pop\n      pop\n      pop\n      pop\n      pop\n      swap1\n      dup1\n      0x03\n      add\n      0x00\n      swap1\n      sload\n      swap1\n      0x0100\n      exp\n      swap1\n      div\n      0xff\n      and\n      swap1\n      pop\n      dup5\n      jump\t// out\n        /* \"e-learning.sol\":829:1096  function verifyCredential(address student) public view returns (string memory, string memory, string memory, bool) {... */\n    tag_26:\n        /* \"e-learning.sol\":893:906  string memory */\n      0x60\n        /* \"e-learning.sol\":908:921  string memory */\n      dup1\n        /* \"e-learning.sol\":923:936  string memory */\n      0x60\n        /* \"e-learning.sol\":938:942  bool */\n      0x00\n        /* \"e-learning.sol\":955:977  Credential memory cred */\n      dup1\n        /* \"e-learning.sol\":980:991  credentials */\n      0x00\n        /* \"e-learning.sol\":980:1000  credentials[student] */\n      dup1\n        /* \"e-learning.sol\":992:999  student */\n      dup8\n        /* \"e-learning.sol\":980:1000  credentials[student] */\n      0xffffffffffffffffffffffffffffffffffffffff\n      and\n      0xffffffffffffffffffffffffffffffffffffffff\n      and\n      dup2\n      mstore\n      0x20\n      add\n      swap1\n      dup2\n      mstore\n      0x20\n      add\n      0x00\n      keccak256\n        /* \"e-learning.sol\":955:1000  Credential memory cred = credentials[student] */\n      mload(0x40)\n      dup1\n      0x80\n      add\n      0x40\n      mstore\n      swap1\n      dup2\n      0x00\n      dup3\n      add\n      dup1\n      sload\n      tag_61\n      swap1\n      tag_45\n      jump\t// in\n    tag_61:\n      dup1\n      0x1f\n      add\n      0x20\n      dup1\n      swap2\n      div\n      mul\n      0x20\n      add\n      mload(0x40)\n      swap1\n      dup2\n      add\n      0x40\n      mstore\n      dup1\n      swap3\n      swap2\n      swap1\n      dup2\n      dup2\n      mstore\n      0x20\n      add\n      dup3\n      dup1\n      sload\n      tag_62\n      swap1\n      tag_45\n      jump\t// in\n    tag_62:\n      dup1\n      iszero\n      tag_63\n      jumpi\n      dup1\n      0x1f\n      lt\n      tag_64\n      jumpi\n      0x0100\n      dup1\n      dup4\n      sload\n      div\n      mul\n      dup4\n      mstore\n      swap2\n      0x20\n      add\n      swap2\n      jump(tag_63)\n    tag_64:\n      dup3\n      add\n      swap2\n      swap1\n      0x00\n      mstore\n      keccak256(0x00, 0x20)\n      swap1\n    tag_65:\n      dup2\n      sload\n      dup2\n      mstore\n      swap1\n      0x01\n      add\n      swap1\n      0x20\n      add\n      dup1\n      dup4\n      gt\n      tag_65\n      jumpi\n      dup3\n      swap1\n      sub\n      0x1f\n      and\n      dup3\n      add\n      swap2\n    tag_63:\n      pop\n      pop\n      pop\n      pop\n      pop\n      dup2\n      mstore\n      0x20\n      add\n      0x01\n      dup3\n      add\n      dup1\n      sload\n      tag_66\n      swap1\n      tag_45\n      jump\t// in\n    tag_66:\n      dup1\n      0x1f\n      add\n      0x20\n      dup1\n      swap2\n      div\n      mul\n      0x20\n      add\n      mload(0x40)\n      swap1\n      dup2\n      add\n      0x40\n      mstore\n      dup1\n      swap3\n      swap2\n      swap1\n      dup2\n      dup2\n      mstore\n      0x20\n      add\n      dup3\n      dup1\n      sload\n      tag_67\n      swap1\n      tag_45\n      jump\t// in\n    tag_67:\n      dup1\n      iszero\n      tag_68\n      jumpi\n      dup1\n      0x1f\n      lt\n      tag_69\n      jumpi\n      0x0100\n      dup1\n      dup4\n      sload\n      div\n      mul\n      dup4\n      mstore\n      swap2\n      0x20\n      add\n      swap2\n      jump(tag_68)\n    tag_69:\n      dup3\n      add\n      swap2\n      swap1\n      0x00\n      mstore\n      keccak256(0x00, 0x20)\n      swap1\n    tag_70:\n      dup2\n      sload\n      dup2\n      mstore\n      swap1\n      0x01\n      add\n      swap1\n      0x20\n      add\n      dup1\n      dup4\n      gt\n      tag_70\n      jumpi\n      dup3\n      swap1\n      sub\n      0x1f\n      and\n      dup3\n      add\n      swap2\n    tag_68:\n      pop\n      pop\n      pop\n      pop\n      pop\n      dup2\n      mstore\n      0x20\n      add\n      0x02\n      dup3\n      add\n      dup1\n      sload\n      tag_71\n      swap1\n      tag_45\n      jump\t// in\n    tag_71:\n      dup1\n      0x1f\n      add\n      0x20\n      dup1\n      swap2\n      div\n      mul\n      0x20\n      add\n      mload(0x40)\n      swap1\n      dup2\n      add\n      0x40\n      mstore\n      dup1\n      swap3\n      swap2\n      swap1\n      dup2\n      dup2\n      mstore\n      0x20\n      add\n      dup3\n      dup1\n      sload\n      tag_72\n      swap1\n      tag_45\n      jump\t// in\n    tag_72:\n      dup1\n      iszero\n      tag_73\n      jumpi\n      dup1\n      0x1f\n      lt\n      tag_74\n      jumpi\n      0x0100\n      dup1\n      dup4\n      sload\n      div\n      mul\n      dup4\n      mstore\n      swap2\n      0x20\n      add\n      swap2\n      jump(tag_73)\n    tag_74:\n      dup3\n      add\n      swap2\n      swap1\n      0x00\n      mstore\n      keccak256(0x00, 0x20)\n      swap1\n    tag_75:\n      dup2\n      sload\n      dup2\n      mstore\n      swap1\n      0x01\n      add\n      swap1\n      0x20\n      add\n      dup1\n      dup4\n      gt\n      tag_75\n      jumpi\n      dup3\n      swap1\n      sub\n      0x1f\n      and\n      dup3\n      add\n      swap2\n    tag_73:\n      pop\n      pop\n      pop\n      pop\n      pop\n      dup2\n      mstore\n      0x20\n      add\n      0x03\n      dup3\n      add\n      0x00\n      swap1\n      sload\n      swap1\n      0x0100\n      exp\n      swap1\n      div\n      0xff\n      and\n      iszero\n      iszero\n      iszero\n      iszero\n      dup2\n      mstore\n      pop\n      pop\n      swap1\n      pop\n        /* \"e-learning.sol\":1019:1023  cred */\n      dup1\n        /* \"e-learning.sol\":1019:1034  cred.courseName */\n      0x00\n      add\n      mload\n        /* \"e-learning.sol\":1036:1040  cred */\n      dup2\n        /* \"e-learning.sol\":1036:1052  cred.studentName */\n      0x20\n      add\n      mload\n        /* \"e-learning.sol\":1054:1058  cred */\n      dup3\n        /* \"e-learning.sol\":1054:1073  cred.credentialHash */\n      0x40\n      add\n      mload\n        /* \"e-learning.sol\":1075:1079  cred */\n      dup4\n        /* \"e-learning.sol\":1075:1087  cred.isValid */\n      0x60\n      add\n      mload\n        /* \"e-learning.sol\":1011:1088  return (cred.courseName, cred.studentName, cred.credentialHash, cred.isValid) */\n      swap5\n      pop\n      swap5\n      pop\n      swap5\n      pop\n      swap5\n      pop\n      pop\n        /* \"e-learning.sol\":829:1096  function verifyCredential(address student) public view returns (string memory, string memory, string memory, bool) {... */\n      swap2\n      swap4\n      pop\n      swap2\n      swap4\n      jump\t// out\n        /* \"e-learning.sol\":1104:1263  function rewardTokens(address student, uint256 amount) public {... */\n    tag_31:\n        /* \"e-learning.sol\":1202:1208  amount */\n      dup1\n        /* \"e-learning.sol\":1177:1189  tokenBalance */\n      0x01\n        /* \"e-learning.sol\":1177:1198  tokenBalance[student] */\n      0x00\n        /* \"e-learning.sol\":1190:1197  student */\n      dup5\n        /* \"e-learning.sol\":1177:1198  tokenBalance[student] */\n      0xffffffffffffffffffffffffffffffffffffffff\n      and\n      0xffffffffffffffffffffffffffffffffffffffff\n      and\n      dup2\n      mstore\n      0x20\n      add\n      swap1\n      dup2\n      mstore\n      0x20\n      add\n      0x00\n      keccak256\n      0x00\n        /* \"e-learning.sol\":1177:1208  tokenBalance[student] += amount */\n      dup3\n      dup3\n      sload\n      tag_77\n      swap2\n      swap1\n      tag_78\n      jump\t// in\n    tag_77:\n      swap3\n      pop\n      pop\n      dup2\n      swap1\n      sstore\n      pop\n        /* \"e-learning.sol\":1239:1246  student */\n      dup2\n        /* \"e-learning.sol\":1224:1255  TokensRewarded(student, amount) */\n      0xffffffffffffffffffffffffffffffffffffffff\n      and\n      0x0d3ecba324ef5a283bcbd5d1a966cab18661432ab3575740c588f7a0144b0dfa\n        /* \"e-learning.sol\":1248:1254  amount */\n      dup3\n        /* \"e-learning.sol\":1224:1255  TokensRewarded(student, amount) */\n      mload(0x40)\n      tag_79\n      swap2\n      swap1\n      tag_18\n      jump\t// in\n    tag_79:\n      mload(0x40)\n      dup1\n      swap2\n      sub\n      swap1\n      log2\n        /* \"e-learning.sol\":1104:1263  function rewardTokens(address student, uint256 amount) public {... */\n      pop\n      pop\n      jump\t// out\n        /* \"e-learning.sol\":299:346  mapping(address => uint256) public tokenBalance */\n    tag_34:\n      mstore(0x20, 0x01)\n      dup1\n      0x00\n      mstore\n      keccak256(0x00, 0x40)\n      0x00\n      swap2\n      pop\n      swap1\n      pop\n      sload\n      dup2\n      jump\t// out\n        /* \"#utility.yul\":7:82   */\n    tag_80:\n        /* \"#utility.yul\":40:46   */\n      0x00\n        /* \"#utility.yul\":73:75   */\n      0x40\n        /* \"#utility.yul\":67:76   */\n      mload\n        /* \"#utility.yul\":57:76   */\n      swap1\n      pop\n        /* \"#utility.yul\":7:82   */\n      swap1\n      jump\t// out\n        /* \"#utility.yul\":88:205   */\n    tag_81:\n        /* \"#utility.yul\":197:198   */\n      0x00\n        /* \"#utility.yul\":194:195   */\n      dup1\n        /* \"#utility.yul\":187:199   */\n      revert\n        /* \"#utility.yul\":211:328   */\n    tag_82:\n        /* \"#utility.yul\":320:321   */\n      0x00\n        /* \"#utility.yul\":317:318   */\n      dup1\n        /* \"#utility.yul\":310:322   */\n      revert\n        /* \"#utility.yul\":334:460   */\n    tag_83:\n        /* \"#utility.yul\":371:378   */\n      0x00\n        /* \"#utility.yul\":411:453   */\n      0xffffffffffffffffffffffffffffffffffffffff\n        /* \"#utility.yul\":404:409   */\n      dup3\n        /* \"#utility.yul\":400:454   */\n      and\n        /* \"#utility.yul\":389:454   */\n      swap1\n      pop\n        /* \"#utility.yul\":334:460   */\n      swap2\n      swap1\n      pop\n      jump\t// out\n        /* \"#utility.yul\":466:562   */\n    tag_84:\n        /* \"#utility.yul\":503:510   */\n      0x00\n        /* \"#utility.yul\":532:556   */\n      tag_130\n        /* \"#utility.yul\":550:555   */\n      dup3\n        /* \"#utility.yul\":532:556   */\n      tag_83\n      jump\t// in\n    tag_130:\n        /* \"#utility.yul\":521:556   */\n      swap1\n      pop\n        /* \"#utility.yul\":466:562   */\n      swap2\n      swap1\n      pop\n      jump\t// out\n        /* \"#utility.yul\":568:690   */\n    tag_85:\n        /* \"#utility.yul\":641:665   */\n      tag_132\n        /* \"#utility.yul\":659:664   */\n      dup2\n        /* \"#utility.yul\":641:665   */\n      tag_84\n      jump\t// in\n    tag_132:\n        /* \"#utility.yul\":634:639   */\n      dup2\n        /* \"#utility.yul\":631:666   */\n      eq\n        /* \"#utility.yul\":621:684   */\n      tag_133\n      jumpi\n        /* \"#utility.yul\":680:681   */\n      0x00\n        /* \"#utility.yul\":677:678   */\n      dup1\n        /* \"#utility.yul\":670:682   */\n      revert\n        /* \"#utility.yul\":621:684   */\n    tag_133:\n        /* \"#utility.yul\":568:690   */\n      pop\n      jump\t// out\n        /* \"#utility.yul\":696:835   */\n    tag_86:\n        /* \"#utility.yul\":742:747   */\n      0x00\n        /* \"#utility.yul\":780:786   */\n      dup2\n        /* \"#utility.yul\":767:787   */\n      calldataload\n        /* \"#utility.yul\":758:787   */\n      swap1\n      pop\n        /* \"#utility.yul\":796:829   */\n      tag_135\n        /* \"#utility.yul\":823:828   */\n      dup2\n        /* \"#utility.yul\":796:829   */\n      tag_85\n      jump\t// in\n    tag_135:\n        /* \"#utility.yul\":696:835   */\n      swap3\n      swap2\n      pop\n      pop\n      jump\t// out\n        /* \"#utility.yul\":841:958   */\n    tag_87:\n        /* \"#utility.yul\":950:951   */\n      0x00\n        /* \"#utility.yul\":947:948   */\n      dup1\n        /* \"#utility.yul\":940:952   */\n      revert\n        /* \"#utility.yul\":964:1081   */\n    tag_88:\n        /* \"#utility.yul\":1073:1074   */\n      0x00\n        /* \"#utility.yul\":1070:1071   */\n      dup1\n        /* \"#utility.yul\":1063:1075   */\n      revert\n        /* \"#utility.yul\":1087:1189   */\n    tag_89:\n        /* \"#utility.yul\":1128:1134   */\n      0x00\n        /* \"#utility.yul\":1179:1181   */\n      0x1f\n        /* \"#utility.yul\":1175:1182   */\n      not\n        /* \"#utility.yul\":1170:1172   */\n      0x1f\n        /* \"#utility.yul\":1163:1168   */\n      dup4\n        /* \"#utility.yul\":1159:1173   */\n      add\n        /* \"#utility.yul\":1155:1183   */\n      and\n        /* \"#utility.yul\":1145:1183   */\n      swap1\n      pop\n        /* \"#utility.yul\":1087:1189   */\n      swap2\n      swap1\n      pop\n      jump\t// out\n        /* \"#utility.yul\":1195:1375   */\n    tag_90:\n        /* \"#utility.yul\":1243:1320   */\n      0x4e487b7100000000000000000000000000000000000000000000000000000000\n        /* \"#utility.yul\":1240:1241   */\n      0x00\n        /* \"#utility.yul\":1233:1321   */\n      mstore\n        /* \"#utility.yul\":1340:1344   */\n      0x41\n        /* \"#utility.yul\":1337:1338   */\n      0x04\n        /* \"#utility.yul\":1330:1345   */\n      mstore\n        /* \"#utility.yul\":1364:1368   */\n      0x24\n        /* \"#utility.yul\":1361:1362   */\n      0x00\n        /* \"#utility.yul\":1354:1369   */\n      revert\n        /* \"#utility.yul\":1381:1662   */\n    tag_91:\n        /* \"#utility.yul\":1464:1491   */\n      tag_141\n        /* \"#utility.yul\":1486:1490   */\n      dup3\n        /* \"#utility.yul\":1464:1491   */\n      tag_89\n      jump\t// in\n    tag_141:\n        /* \"#utility.yul\":1456:1462   */\n      dup2\n        /* \"#utility.yul\":1452:1492   */\n      add\n        /* \"#utility.yul\":1594:1600   */\n      dup2\n        /* \"#utility.yul\":1582:1592   */\n      dup2\n        /* \"#utility.yul\":1579:1601   */\n      lt\n        /* \"#utility.yul\":1558:1576   */\n      0xffffffffffffffff\n        /* \"#utility.yul\":1546:1556   */\n      dup3\n        /* \"#utility.yul\":1543:1577   */\n      gt\n        /* \"#utility.yul\":1540:1602   */\n      or\n        /* \"#utility.yul\":1537:1625   */\n      iszero\n      tag_142\n      jumpi\n        /* \"#utility.yul\":1605:1623   */\n      tag_143\n      tag_90\n      jump\t// in\n    tag_143:\n        /* \"#utility.yul\":1537:1625   */\n    tag_142:\n        /* \"#utility.yul\":1645:1655   */\n      dup1\n        /* \"#utility.yul\":1641:1643   */\n      0x40\n        /* \"#utility.yul\":1634:1656   */\n      mstore\n        /* \"#utility.yul\":1424:1662   */\n      pop\n        /* \"#utility.yul\":1381:1662   */\n      pop\n      pop\n      jump\t// out\n        /* \"#utility.yul\":1668:1797   */\n    tag_92:\n        /* \"#utility.yul\":1702:1708   */\n      0x00\n        /* \"#utility.yul\":1729:1749   */\n      tag_145\n      tag_80\n      jump\t// in\n    tag_145:\n        /* \"#utility.yul\":1719:1749   */\n      swap1\n      pop\n        /* \"#utility.yul\":1758:1791   */\n      tag_146\n        /* \"#utility.yul\":1786:1790   */\n      dup3\n        /* \"#utility.yul\":1778:1784   */\n      dup3\n        /* \"#utility.yul\":1758:1791   */\n      tag_91\n      jump\t// in\n    tag_146:\n        /* \"#utility.yul\":1668:1797   */\n      swap2\n      swap1\n      pop\n      jump\t// out\n        /* \"#utility.yul\":1803:2111   */\n    tag_93:\n        /* \"#utility.yul\":1865:1869   */\n      0x00\n        /* \"#utility.yul\":1955:1973   */\n      0xffffffffffffffff\n        /* \"#utility.yul\":1947:1953   */\n      dup3\n        /* \"#utility.yul\":1944:1974   */\n      gt\n        /* \"#utility.yul\":1941:1997   */\n      iszero\n      tag_148\n      jumpi\n        /* \"#utility.yul\":1977:1995   */\n      tag_149\n      tag_90\n      jump\t// in\n    tag_149:\n        /* \"#utility.yul\":1941:1997   */\n    tag_148:\n        /* \"#utility.yul\":2015:2044   */\n      tag_150\n        /* \"#utility.yul\":2037:2043   */\n      dup3\n        /* \"#utility.yul\":2015:2044   */\n      tag_89\n      jump\t// in\n    tag_150:\n        /* \"#utility.yul\":2007:2044   */\n      swap1\n      pop\n        /* \"#utility.yul\":2099:2103   */\n      0x20\n        /* \"#utility.yul\":2093:2097   */\n      dup2\n        /* \"#utility.yul\":2089:2104   */\n      add\n        /* \"#utility.yul\":2081:2104   */\n      swap1\n      pop\n        /* \"#utility.yul\":1803:2111   */\n      swap2\n      swap1\n      pop\n      jump\t// out\n        /* \"#utility.yul\":2117:2265   */\n    tag_94:\n        /* \"#utility.yul\":2215:2221   */\n      dup3\n        /* \"#utility.yul\":2210:2213   */\n      dup2\n        /* \"#utility.yul\":2205:2208   */\n      dup4\n        /* \"#utility.yul\":2192:2222   */\n      calldatacopy\n        /* \"#utility.yul\":2256:2257   */\n      0x00\n        /* \"#utility.yul\":2247:2253   */\n      dup4\n        /* \"#utility.yul\":2242:2245   */\n      dup4\n        /* \"#utility.yul\":2238:2254   */\n      add\n        /* \"#utility.yul\":2231:2258   */\n      mstore\n        /* \"#utility.yul\":2117:2265   */\n      pop\n      pop\n      pop\n      jump\t// out\n        /* \"#utility.yul\":2271:2696   */\n    tag_95:\n        /* \"#utility.yul\":2349:2354   */\n      0x00\n        /* \"#utility.yul\":2374:2440   */\n      tag_153\n        /* \"#utility.yul\":2390:2439   */\n      tag_154\n        /* \"#utility.yul\":2432:2438   */\n      dup5\n        /* \"#utility.yul\":2390:2439   */\n      tag_93\n      jump\t// in\n    tag_154:\n        /* \"#utility.yul\":2374:2440   */\n      tag_92\n      jump\t// in\n    tag_153:\n        /* \"#utility.yul\":2365:2440   */\n      swap1\n      pop\n        /* \"#utility.yul\":2463:2469   */\n      dup3\n        /* \"#utility.yul\":2456:2461   */\n      dup2\n        /* \"#utility.yul\":2449:2470   */\n      mstore\n        /* \"#utility.yul\":2501:2505   */\n      0x20\n        /* \"#utility.yul\":2494:2499   */\n      dup2\n        /* \"#utility.yul\":2490:2506   */\n      add\n        /* \"#utility.yul\":2539:2542   */\n      dup5\n        /* \"#utility.yul\":2530:2536   */\n      dup5\n        /* \"#utility.yul\":2525:2528   */\n      dup5\n        /* \"#utility.yul\":2521:2537   */\n      add\n        /* \"#utility.yul\":2518:2543   */\n      gt\n        /* \"#utility.yul\":2515:2627   */\n      iszero\n      tag_155\n      jumpi\n        /* \"#utility.yul\":2546:2625   */\n      tag_156\n      tag_88\n      jump\t// in\n    tag_156:\n        /* \"#utility.yul\":2515:2627   */\n    tag_155:\n        /* \"#utility.yul\":2636:2690   */\n      tag_157\n        /* \"#utility.yul\":2683:2689   */\n      dup5\n        /* \"#utility.yul\":2678:2681   */\n      dup3\n        /* \"#utility.yul\":2673:2676   */\n      dup6\n        /* \"#utility.yul\":2636:2690   */\n      tag_94\n      jump\t// in\n    tag_157:\n        /* \"#utility.yul\":2355:2696   */\n      pop\n        /* \"#utility.yul\":2271:2696   */\n      swap4\n      swap3\n      pop\n      pop\n      pop\n      jump\t// out\n        /* \"#utility.yul\":2716:3056   */\n    tag_96:\n        /* \"#utility.yul\":2772:2777   */\n      0x00\n        /* \"#utility.yul\":2821:2824   */\n      dup3\n        /* \"#utility.yul\":2814:2818   */\n      0x1f\n        /* \"#utility.yul\":2806:2812   */\n      dup4\n        /* \"#utility.yul\":2802:2819   */\n      add\n        /* \"#utility.yul\":2798:2825   */\n      slt\n        /* \"#utility.yul\":2788:2910   */\n      tag_159\n      jumpi\n        /* \"#utility.yul\":2829:2908   */\n      tag_160\n      tag_87\n      jump\t// in\n    tag_160:\n        /* \"#utility.yul\":2788:2910   */\n    tag_159:\n        /* \"#utility.yul\":2946:2952   */\n      dup2\n        /* \"#utility.yul\":2933:2953   */\n      calldataload\n        /* \"#utility.yul\":2971:3050   */\n      tag_161\n        /* \"#utility.yul\":3046:3049   */\n      dup5\n        /* \"#utility.yul\":3038:3044   */\n      dup3\n        /* \"#utility.yul\":3031:3035   */\n      0x20\n        /* \"#utility.yul\":3023:3029   */\n      dup7\n        /* \"#utility.yul\":3019:3036   */\n      add\n        /* \"#utility.yul\":2971:3050   */\n      tag_95\n      jump\t// in\n    tag_161:\n        /* \"#utility.yul\":2962:3050   */\n      swap2\n      pop\n        /* \"#utility.yul\":2778:3056   */\n      pop\n        /* \"#utility.yul\":2716:3056   */\n      swap3\n      swap2\n      pop\n      pop\n      jump\t// out\n        /* \"#utility.yul\":3062:4367   */\n    tag_11:\n        /* \"#utility.yul\":3178:3184   */\n      0x00\n        /* \"#utility.yul\":3186:3192   */\n      dup1\n        /* \"#utility.yul\":3194:3200   */\n      0x00\n        /* \"#utility.yul\":3202:3208   */\n      dup1\n        /* \"#utility.yul\":3251:3254   */\n      0x80\n        /* \"#utility.yul\":3239:3248   */\n      dup6\n        /* \"#utility.yul\":3230:3237   */\n      dup8\n        /* \"#utility.yul\":3226:3249   */\n      sub\n        /* \"#utility.yul\":3222:3255   */\n      slt\n        /* \"#utility.yul\":3219:3339   */\n      iszero\n      tag_163\n      jumpi\n        /* \"#utility.yul\":3258:3337   */\n      tag_164\n      tag_81\n      jump\t// in\n    tag_164:\n        /* \"#utility.yul\":3219:3339   */\n    tag_163:\n        /* \"#utility.yul\":3378:3379   */\n      0x00\n        /* \"#utility.yul\":3403:3456   */\n      tag_165\n        /* \"#utility.yul\":3448:3455   */\n      dup8\n        /* \"#utility.yul\":3439:3445   */\n      dup3\n        /* \"#utility.yul\":3428:3437   */\n      dup9\n        /* \"#utility.yul\":3424:3446   */\n      add\n        /* \"#utility.yul\":3403:3456   */\n      tag_86\n      jump\t// in\n    tag_165:\n        /* \"#utility.yul\":3393:3456   */\n      swap5\n      pop\n        /* \"#utility.yul\":3349:3466   */\n      pop\n        /* \"#utility.yul\":3533:3535   */\n      0x20\n        /* \"#utility.yul\":3522:3531   */\n      dup6\n        /* \"#utility.yul\":3518:3536   */\n      add\n        /* \"#utility.yul\":3505:3537   */\n      calldataload\n        /* \"#utility.yul\":3564:3582   */\n      0xffffffffffffffff\n        /* \"#utility.yul\":3556:3562   */\n      dup2\n        /* \"#utility.yul\":3553:3583   */\n      gt\n        /* \"#utility.yul\":3550:3667   */\n      iszero\n      tag_166\n      jumpi\n        /* \"#utility.yul\":3586:3665   */\n      tag_167\n      tag_82\n      jump\t// in\n    tag_167:\n        /* \"#utility.yul\":3550:3667   */\n    tag_166:\n        /* \"#utility.yul\":3691:3754   */\n      tag_168\n        /* \"#utility.yul\":3746:3753   */\n      dup8\n        /* \"#utility.yul\":3737:3743   */\n      dup3\n        /* \"#utility.yul\":3726:3735   */\n      dup9\n        /* \"#utility.yul\":3722:3744   */\n      add\n        /* \"#utility.yul\":3691:3754   */\n      tag_96\n      jump\t// in\n    tag_168:\n        /* \"#utility.yul\":3681:3754   */\n      swap4\n      pop\n        /* \"#utility.yul\":3476:3764   */\n      pop\n        /* \"#utility.yul\":3831:3833   */\n      0x40\n        /* \"#utility.yul\":3820:3829   */\n      dup6\n        /* \"#utility.yul\":3816:3834   */\n      add\n        /* \"#utility.yul\":3803:3835   */\n      calldataload\n        /* \"#utility.yul\":3862:3880   */\n      0xffffffffffffffff\n        /* \"#utility.yul\":3854:3860   */\n      dup2\n        /* \"#utility.yul\":3851:3881   */\n      gt\n        /* \"#utility.yul\":3848:3965   */\n      iszero\n      tag_169\n      jumpi\n        /* \"#utility.yul\":3884:3963   */\n      tag_170\n      tag_82\n      jump\t// in\n    tag_170:\n        /* \"#utility.yul\":3848:3965   */\n    tag_169:\n        /* \"#utility.yul\":3989:4052   */\n      tag_171\n        /* \"#utility.yul\":4044:4051   */\n      dup8\n        /* \"#utility.yul\":4035:4041   */\n      dup3\n        /* \"#utility.yul\":4024:4033   */\n      dup9\n        /* \"#utility.yul\":4020:4042   */\n      add\n        /* \"#utility.yul\":3989:4052   */\n      tag_96\n      jump\t// in\n    tag_171:\n        /* \"#utility.yul\":3979:4052   */\n      swap3\n      pop\n        /* \"#utility.yul\":3774:4062   */\n      pop\n        /* \"#utility.yul\":4129:4131   */\n      0x60\n        /* \"#utility.yul\":4118:4127   */\n      dup6\n        /* \"#utility.yul\":4114:4132   */\n      add\n        /* \"#utility.yul\":4101:4133   */\n      calldataload\n        /* \"#utility.yul\":4160:4178   */\n      0xffffffffffffffff\n        /* \"#utility.yul\":4152:4158   */\n      dup2\n        /* \"#utility.yul\":4149:4179   */\n      gt\n        /* \"#utility.yul\":4146:4263   */\n      iszero\n      tag_172\n      jumpi\n        /* \"#utility.yul\":4182:4261   */\n      tag_173\n      tag_82\n      jump\t// in\n    tag_173:\n        /* \"#utility.yul\":4146:4263   */\n    tag_172:\n        /* \"#utility.yul\":4287:4350   */\n      tag_174\n        /* \"#utility.yul\":4342:4349   */\n      dup8\n        /* \"#utility.yul\":4333:4339   */\n      dup3\n        /* \"#utility.yul\":4322:4331   */\n      dup9\n        /* \"#utility.yul\":4318:4340   */\n      add\n        /* \"#utility.yul\":4287:4350   */\n      tag_96\n      jump\t// in\n    tag_174:\n        /* \"#utility.yul\":4277:4350   */\n      swap2\n      pop\n        /* \"#utility.yul\":4072:4360   */\n      pop\n        /* \"#utility.yul\":3062:4367   */\n      swap3\n      swap6\n      swap2\n      swap5\n      pop\n      swap3\n      pop\n      jump\t// out\n        /* \"#utility.yul\":4373:4702   */\n    tag_15:\n        /* \"#utility.yul\":4432:4438   */\n      0x00\n        /* \"#utility.yul\":4481:4483   */\n      0x20\n        /* \"#utility.yul\":4469:4478   */\n      dup3\n        /* \"#utility.yul\":4460:4467   */\n      dup5\n        /* \"#utility.yul\":4456:4479   */\n      sub\n        /* \"#utility.yul\":4452:4484   */\n      slt\n        /* \"#utility.yul\":4449:4568   */\n      iszero\n      tag_176\n      jumpi\n        /* \"#utility.yul\":4487:4566   */\n      tag_177\n      tag_81\n      jump\t// in\n    tag_177:\n        /* \"#utility.yul\":4449:4568   */\n    tag_176:\n        /* \"#utility.yul\":4607:4608   */\n      0x00\n        /* \"#utility.yul\":4632:4685   */\n      tag_178\n        /* \"#utility.yul\":4677:4684   */\n      dup5\n        /* \"#utility.yul\":4668:4674   */\n      dup3\n        /* \"#utility.yul\":4657:4666   */\n      dup6\n        /* \"#utility.yul\":4653:4675   */\n      add\n        /* \"#utility.yul\":4632:4685   */\n      tag_86\n      jump\t// in\n    tag_178:\n        /* \"#utility.yul\":4622:4685   */\n      swap2\n      pop\n        /* \"#utility.yul\":4578:4695   */\n      pop\n        /* \"#utility.yul\":4373:4702   */\n      swap3\n      swap2\n      pop\n      pop\n      jump\t// out\n        /* \"#utility.yul\":4708:4785   */\n    tag_97:\n        /* \"#utility.yul\":4745:4752   */\n      0x00\n        /* \"#utility.yul\":4774:4779   */\n      dup2\n        /* \"#utility.yul\":4763:4779   */\n      swap1\n      pop\n        /* \"#utility.yul\":4708:4785   */\n      swap2\n      swap1\n      pop\n      jump\t// out\n        /* \"#utility.yul\":4791:4909   */\n    tag_98:\n        /* \"#utility.yul\":4878:4902   */\n      tag_181\n        /* \"#utility.yul\":4896:4901   */\n      dup2\n        /* \"#utility.yul\":4878:4902   */\n      tag_97\n      jump\t// in\n    tag_181:\n        /* \"#utility.yul\":4873:4876   */\n      dup3\n        /* \"#utility.yul\":4866:4903   */\n      mstore\n        /* \"#utility.yul\":4791:4909   */\n      pop\n      pop\n      jump\t// out\n        /* \"#utility.yul\":4915:5137   */\n    tag_18:\n        /* \"#utility.yul\":5008:5012   */\n      0x00\n        /* \"#utility.yul\":5046:5048   */\n      0x20\n        /* \"#utility.yul\":5035:5044   */\n      dup3\n        /* \"#utility.yul\":5031:5049   */\n      add\n        /* \"#utility.yul\":5023:5049   */\n      swap1\n      pop\n        /* \"#utility.yul\":5059:5130   */\n      tag_183\n        /* \"#utility.yul\":5127:5128   */\n      0x00\n        /* \"#utility.yul\":5116:5125   */\n      dup4\n        /* \"#utility.yul\":5112:5129   */\n      add\n        /* \"#utility.yul\":5103:5109   */\n      dup5\n        /* \"#utility.yul\":5059:5130   */\n      tag_98\n      jump\t// in\n    tag_183:\n        /* \"#utility.yul\":4915:5137   */\n      swap3\n      swap2\n      pop\n      pop\n      jump\t// out\n        /* \"#utility.yul\":5143:5242   */\n    tag_99:\n        /* \"#utility.yul\":5195:5201   */\n      0x00\n        /* \"#utility.yul\":5229:5234   */\n      dup2\n        /* \"#utility.yul\":5223:5235   */\n      mload\n        /* \"#utility.yul\":5213:5235   */\n      swap1\n      pop\n        /* \"#utility.yul\":5143:5242   */\n      swap2\n      swap1\n      pop\n      jump\t// out\n        /* \"#utility.yul\":5248:5417   */\n    tag_100:\n        /* \"#utility.yul\":5332:5343   */\n      0x00\n        /* \"#utility.yul\":5366:5372   */\n      dup3\n        /* \"#utility.yul\":5361:5364   */\n      dup3\n        /* \"#utility.yul\":5354:5373   */\n      mstore\n        /* \"#utility.yul\":5406:5410   */\n      0x20\n        /* \"#utility.yul\":5401:5404   */\n      dup3\n        /* \"#utility.yul\":5397:5411   */\n      add\n        /* \"#utility.yul\":5382:5411   */\n      swap1\n      pop\n        /* \"#utility.yul\":5248:5417   */\n      swap3\n      swap2\n      pop\n      pop\n      jump\t// out\n        /* \"#utility.yul\":5423:5562   */\n    tag_101:\n        /* \"#utility.yul\":5512:5518   */\n      dup3\n        /* \"#utility.yul\":5507:5510   */\n      dup2\n        /* \"#utility.yul\":5502:5505   */\n      dup4\n        /* \"#utility.yul\":5496:5519   */\n      mcopy\n        /* \"#utility.yul\":5553:5554   */\n      0x00\n        /* \"#utility.yul\":5544:5550   */\n      dup4\n        /* \"#utility.yul\":5539:5542   */\n      dup4\n        /* \"#utility.yul\":5535:5551   */\n      add\n        /* \"#utility.yul\":5528:5555   */\n      mstore\n        /* \"#utility.yul\":5423:5562   */\n      pop\n      pop\n      pop\n      jump\t// out\n        /* \"#utility.yul\":5568:5945   */\n    tag_102:\n        /* \"#utility.yul\":5656:5659   */\n      0x00\n        /* \"#utility.yul\":5684:5723   */\n      tag_188\n        /* \"#utility.yul\":5717:5722   */\n      dup3\n        /* \"#utility.yul\":5684:5723   */\n      tag_99\n      jump\t// in\n    tag_188:\n        /* \"#utility.yul\":5739:5810   */\n      tag_189\n        /* \"#utility.yul\":5803:5809   */\n      dup2\n        /* \"#utility.yul\":5798:5801   */\n      dup6\n        /* \"#utility.yul\":5739:5810   */\n      tag_100\n      jump\t// in\n    tag_189:\n        /* \"#utility.yul\":5732:5810   */\n      swap4\n      pop\n        /* \"#utility.yul\":5819:5884   */\n      tag_190\n        /* \"#utility.yul\":5877:5883   */\n      dup2\n        /* \"#utility.yul\":5872:5875   */\n      dup6\n        /* \"#utility.yul\":5865:5869   */\n      0x20\n        /* \"#utility.yul\":5858:5863   */\n      dup7\n        /* \"#utility.yul\":5854:5870   */\n      add\n        /* \"#utility.yul\":5819:5884   */\n      tag_101\n      jump\t// in\n    tag_190:\n        /* \"#utility.yul\":5909:5938   */\n      tag_191\n        /* \"#utility.yul\":5931:5937   */\n      dup2\n        /* \"#utility.yul\":5909:5938   */\n      tag_89\n      jump\t// in\n    tag_191:\n        /* \"#utility.yul\":5904:5907   */\n      dup5\n        /* \"#utility.yul\":5900:5939   */\n      add\n        /* \"#utility.yul\":5893:5939   */\n      swap2\n      pop\n        /* \"#utility.yul\":5660:5945   */\n      pop\n        /* \"#utility.yul\":5568:5945   */\n      swap3\n      swap2\n      pop\n      pop\n      jump\t// out\n        /* \"#utility.yul\":5951:6041   */\n    tag_103:\n        /* \"#utility.yul\":5985:5992   */\n      0x00\n        /* \"#utility.yul\":6028:6033   */\n      dup2\n        /* \"#utility.yul\":6021:6034   */\n      iszero\n        /* \"#utility.yul\":6014:6035   */\n      iszero\n        /* \"#utility.yul\":6003:6035   */\n      swap1\n      pop\n        /* \"#utility.yul\":5951:6041   */\n      swap2\n      swap1\n      pop\n      jump\t// out\n        /* \"#utility.yul\":6047:6156   */\n    tag_104:\n        /* \"#utility.yul\":6128:6149   */\n      tag_194\n        /* \"#utility.yul\":6143:6148   */\n      dup2\n        /* \"#utility.yul\":6128:6149   */\n      tag_103\n      jump\t// in\n    tag_194:\n        /* \"#utility.yul\":6123:6126   */\n      dup3\n        /* \"#utility.yul\":6116:6150   */\n      mstore\n        /* \"#utility.yul\":6047:6156   */\n      pop\n      pop\n      jump\t// out\n        /* \"#utility.yul\":6162:6976   */\n    tag_23:\n        /* \"#utility.yul\":6393:6397   */\n      0x00\n        /* \"#utility.yul\":6431:6434   */\n      0x80\n        /* \"#utility.yul\":6420:6429   */\n      dup3\n        /* \"#utility.yul\":6416:6435   */\n      add\n        /* \"#utility.yul\":6408:6435   */\n      swap1\n      pop\n        /* \"#utility.yul\":6481:6490   */\n      dup2\n        /* \"#utility.yul\":6475:6479   */\n      dup2\n        /* \"#utility.yul\":6471:6491   */\n      sub\n        /* \"#utility.yul\":6467:6468   */\n      0x00\n        /* \"#utility.yul\":6456:6465   */\n      dup4\n        /* \"#utility.yul\":6452:6469   */\n      add\n        /* \"#utility.yul\":6445:6492   */\n      mstore\n        /* \"#utility.yul\":6509:6587   */\n      tag_196\n        /* \"#utility.yul\":6582:6586   */\n      dup2\n        /* \"#utility.yul\":6573:6579   */\n      dup8\n        /* \"#utility.yul\":6509:6587   */\n      tag_102\n      jump\t// in\n    tag_196:\n        /* \"#utility.yul\":6501:6587   */\n      swap1\n      pop\n        /* \"#utility.yul\":6634:6643   */\n      dup2\n        /* \"#utility.yul\":6628:6632   */\n      dup2\n        /* \"#utility.yul\":6624:6644   */\n      sub\n        /* \"#utility.yul\":6619:6621   */\n      0x20\n        /* \"#utility.yul\":6608:6617   */\n      dup4\n        /* \"#utility.yul\":6604:6622   */\n      add\n        /* \"#utility.yul\":6597:6645   */\n      mstore\n        /* \"#utility.yul\":6662:6740   */\n      tag_197\n        /* \"#utility.yul\":6735:6739   */\n      dup2\n        /* \"#utility.yul\":6726:6732   */\n      dup7\n        /* \"#utility.yul\":6662:6740   */\n      tag_102\n      jump\t// in\n    tag_197:\n        /* \"#utility.yul\":6654:6740   */\n      swap1\n      pop\n        /* \"#utility.yul\":6787:6796   */\n      dup2\n        /* \"#utility.yul\":6781:6785   */\n      dup2\n        /* \"#utility.yul\":6777:6797   */\n      sub\n        /* \"#utility.yul\":6772:6774   */\n      0x40\n        /* \"#utility.yul\":6761:6770   */\n      dup4\n        /* \"#utility.yul\":6757:6775   */\n      add\n        /* \"#utility.yul\":6750:6798   */\n      mstore\n        /* \"#utility.yul\":6815:6893   */\n      tag_198\n        /* \"#utility.yul\":6888:6892   */\n      dup2\n        /* \"#utility.yul\":6879:6885   */\n      dup6\n        /* \"#utility.yul\":6815:6893   */\n      tag_102\n      jump\t// in\n    tag_198:\n        /* \"#utility.yul\":6807:6893   */\n      swap1\n      pop\n        /* \"#utility.yul\":6903:6969   */\n      tag_199\n        /* \"#utility.yul\":6965:6967   */\n      0x60\n        /* \"#utility.yul\":6954:6963   */\n      dup4\n        /* \"#utility.yul\":6950:6968   */\n      add\n        /* \"#utility.yul\":6941:6947   */\n      dup5\n        /* \"#utility.yul\":6903:6969   */\n      tag_104\n      jump\t// in\n    tag_199:\n        /* \"#utility.yul\":6162:6976   */\n      swap6\n      swap5\n      pop\n      pop\n      pop\n      pop\n      pop\n      jump\t// out\n        /* \"#utility.yul\":6982:7104   */\n    tag_105:\n        /* \"#utility.yul\":7055:7079   */\n      tag_201\n        /* \"#utility.yul\":7073:7078   */\n      dup2\n        /* \"#utility.yul\":7055:7079   */\n      tag_97\n      jump\t// in\n    tag_201:\n        /* \"#utility.yul\":7048:7053   */\n      dup2\n        /* \"#utility.yul\":7045:7080   */\n      eq\n        /* \"#utility.yul\":7035:7098   */\n      tag_202\n      jumpi\n        /* \"#utility.yul\":7094:7095   */\n      0x00\n        /* \"#utility.yul\":7091:7092   */\n      dup1\n        /* \"#utility.yul\":7084:7096   */\n      revert\n        /* \"#utility.yul\":7035:7098   */\n    tag_202:\n        /* \"#utility.yul\":6982:7104   */\n      pop\n      jump\t// out\n        /* \"#utility.yul\":7110:7249   */\n    tag_106:\n        /* \"#utility.yul\":7156:7161   */\n      0x00\n        /* \"#utility.yul\":7194:7200   */\n      dup2\n        /* \"#utility.yul\":7181:7201   */\n      calldataload\n        /* \"#utility.yul\":7172:7201   */\n      swap1\n      pop\n        /* \"#utility.yul\":7210:7243   */\n      tag_204\n        /* \"#utility.yul\":7237:7242   */\n      dup2\n        /* \"#utility.yul\":7210:7243   */\n      tag_105\n      jump\t// in\n    tag_204:\n        /* \"#utility.yul\":7110:7249   */\n      swap3\n      swap2\n      pop\n      pop\n      jump\t// out\n        /* \"#utility.yul\":7255:7729   */\n    tag_30:\n        /* \"#utility.yul\":7323:7329   */\n      0x00\n        /* \"#utility.yul\":7331:7337   */\n      dup1\n        /* \"#utility.yul\":7380:7382   */\n      0x40\n        /* \"#utility.yul\":7368:7377   */\n      dup4\n        /* \"#utility.yul\":7359:7366   */\n      dup6\n        /* \"#utility.yul\":7355:7378   */\n      sub\n        /* \"#utility.yul\":7351:7383   */\n      slt\n        /* \"#utility.yul\":7348:7467   */\n      iszero\n      tag_206\n      jumpi\n        /* \"#utility.yul\":7386:7465   */\n      tag_207\n      tag_81\n      jump\t// in\n    tag_207:\n        /* \"#utility.yul\":7348:7467   */\n    tag_206:\n        /* \"#utility.yul\":7506:7507   */\n      0x00\n        /* \"#utility.yul\":7531:7584   */\n      tag_208\n        /* \"#utility.yul\":7576:7583   */\n      dup6\n        /* \"#utility.yul\":7567:7573   */\n      dup3\n        /* \"#utility.yul\":7556:7565   */\n      dup7\n        /* \"#utility.yul\":7552:7574   */\n      add\n        /* \"#utility.yul\":7531:7584   */\n      tag_86\n      jump\t// in\n    tag_208:\n        /* \"#utility.yul\":7521:7584   */\n      swap3\n      pop\n        /* \"#utility.yul\":7477:7594   */\n      pop\n        /* \"#utility.yul\":7633:7635   */\n      0x20\n        /* \"#utility.yul\":7659:7712   */\n      tag_209\n        /* \"#utility.yul\":7704:7711   */\n      dup6\n        /* \"#utility.yul\":7695:7701   */\n      dup3\n        /* \"#utility.yul\":7684:7693   */\n      dup7\n        /* \"#utility.yul\":7680:7702   */\n      add\n        /* \"#utility.yul\":7659:7712   */\n      tag_106\n      jump\t// in\n    tag_209:\n        /* \"#utility.yul\":7649:7712   */\n      swap2\n      pop\n        /* \"#utility.yul\":7604:7722   */\n      pop\n        /* \"#utility.yul\":7255:7729   */\n      swap3\n      pop\n      swap3\n      swap1\n      pop\n      jump\t// out\n        /* \"#utility.yul\":7735:7915   */\n    tag_107:\n        /* \"#utility.yul\":7783:7860   */\n      0x4e487b7100000000000000000000000000000000000000000000000000000000\n        /* \"#utility.yul\":7780:7781   */\n      0x00\n        /* \"#utility.yul\":7773:7861   */\n      mstore\n        /* \"#utility.yul\":7880:7884   */\n      0x22\n        /* \"#utility.yul\":7877:7878   */\n      0x04\n        /* \"#utility.yul\":7870:7885   */\n      mstore\n        /* \"#utility.yul\":7904:7908   */\n      0x24\n        /* \"#utility.yul\":7901:7902   */\n      0x00\n        /* \"#utility.yul\":7894:7909   */\n      revert\n        /* \"#utility.yul\":7921:8241   */\n    tag_45:\n        /* \"#utility.yul\":7965:7971   */\n      0x00\n        /* \"#utility.yul\":8002:8003   */\n      0x02\n        /* \"#utility.yul\":7996:8000   */\n      dup3\n        /* \"#utility.yul\":7992:8004   */\n      div\n        /* \"#utility.yul\":7982:8004   */\n      swap1\n      pop\n        /* \"#utility.yul\":8049:8050   */\n      0x01\n        /* \"#utility.yul\":8043:8047   */\n      dup3\n        /* \"#utility.yul\":8039:8051   */\n      and\n        /* \"#utility.yul\":8070:8088   */\n      dup1\n        /* \"#utility.yul\":8060:8141   */\n      tag_212\n      jumpi\n        /* \"#utility.yul\":8126:8130   */\n      0x7f\n        /* \"#utility.yul\":8118:8124   */\n      dup3\n        /* \"#utility.yul\":8114:8131   */\n      and\n        /* \"#utility.yul\":8104:8131   */\n      swap2\n      pop\n        /* \"#utility.yul\":8060:8141   */\n    tag_212:\n        /* \"#utility.yul\":8188:8190   */\n      0x20\n        /* \"#utility.yul\":8180:8186   */\n      dup3\n        /* \"#utility.yul\":8177:8191   */\n      lt\n        /* \"#utility.yul\":8157:8175   */\n      dup2\n        /* \"#utility.yul\":8154:8192   */\n      sub\n        /* \"#utility.yul\":8151:8235   */\n      tag_213\n      jumpi\n        /* \"#utility.yul\":8207:8225   */\n      tag_214\n      tag_107\n      jump\t// in\n    tag_214:\n        /* \"#utility.yul\":8151:8235   */\n    tag_213:\n        /* \"#utility.yul\":7972:8241   */\n      pop\n        /* \"#utility.yul\":7921:8241   */\n      swap2\n      swap1\n      pop\n      jump\t// out\n        /* \"#utility.yul\":8247:8388   */\n    tag_108:\n        /* \"#utility.yul\":8296:8300   */\n      0x00\n        /* \"#utility.yul\":8319:8322   */\n      dup2\n        /* \"#utility.yul\":8311:8322   */\n      swap1\n      pop\n        /* \"#utility.yul\":8342:8345   */\n      dup2\n        /* \"#utility.yul\":8339:8340   */\n      0x00\n        /* \"#utility.yul\":8332:8346   */\n      mstore\n        /* \"#utility.yul\":8376:8380   */\n      0x20\n        /* \"#utility.yul\":8373:8374   */\n      0x00\n        /* \"#utility.yul\":8363:8381   */\n      keccak256\n        /* \"#utility.yul\":8355:8381   */\n      swap1\n      pop\n        /* \"#utility.yul\":8247:8388   */\n      swap2\n      swap1\n      pop\n      jump\t// out\n        /* \"#utility.yul\":8394:8487   */\n    tag_109:\n        /* \"#utility.yul\":8431:8437   */\n      0x00\n        /* \"#utility.yul\":8478:8480   */\n      0x20\n        /* \"#utility.yul\":8473:8475   */\n      0x1f\n        /* \"#utility.yul\":8466:8471   */\n      dup4\n        /* \"#utility.yul\":8462:8476   */\n      add\n        /* \"#utility.yul\":8458:8481   */\n      div\n        /* \"#utility.yul\":8448:8481   */\n      swap1\n      pop\n        /* \"#utility.yul\":8394:8487   */\n      swap2\n      swap1\n      pop\n      jump\t// out\n        /* \"#utility.yul\":8493:8600   */\n    tag_110:\n        /* \"#utility.yul\":8537:8545   */\n      0x00\n        /* \"#utility.yul\":8587:8592   */\n      dup3\n        /* \"#utility.yul\":8581:8585   */\n      dup3\n        /* \"#utility.yul\":8577:8593   */\n      shl\n        /* \"#utility.yul\":8556:8593   */\n      swap1\n      pop\n        /* \"#utility.yul\":8493:8600   */\n      swap3\n      swap2\n      pop\n      pop\n      jump\t// out\n        /* \"#utility.yul\":8606:8999   */\n    tag_111:\n        /* \"#utility.yul\":8675:8681   */\n      0x00\n        /* \"#utility.yul\":8725:8726   */\n      0x08\n        /* \"#utility.yul\":8713:8723   */\n      dup4\n        /* \"#utility.yul\":8709:8727   */\n      mul\n        /* \"#utility.yul\":8748:8845   */\n      tag_219\n        /* \"#utility.yul\":8778:8844   */\n      0xffffffffffffffffffffffffffffffffffffffffffffffffffffffffffffffff\n        /* \"#utility.yul\":8767:8776   */\n      dup3\n        /* \"#utility.yul\":8748:8845   */\n      tag_110\n      jump\t// in\n    tag_219:\n        /* \"#utility.yul\":8866:8905   */\n      tag_220\n        /* \"#utility.yul\":8896:8904   */\n      dup7\n        /* \"#utility.yul\":8885:8894   */\n      dup4\n        /* \"#utility.yul\":8866:8905   */\n      tag_110\n      jump\t// in\n    tag_220:\n        /* \"#utility.yul\":8854:8905   */\n      swap6\n      pop\n        /* \"#utility.yul\":8938:8942   */\n      dup1\n        /* \"#utility.yul\":8934:8943   */\n      not\n        /* \"#utility.yul\":8927:8932   */\n      dup5\n        /* \"#utility.yul\":8923:8944   */\n      and\n        /* \"#utility.yul\":8914:8944   */\n      swap4\n      pop\n        /* \"#utility.yul\":8987:8991   */\n      dup1\n        /* \"#utility.yul\":8977:8985   */\n      dup7\n        /* \"#utility.yul\":8973:8992   */\n      and\n        /* \"#utility.yul\":8966:8971   */\n      dup5\n        /* \"#utility.yul\":8963:8993   */\n      or\n        /* \"#utility.yul\":8953:8993   */\n      swap3\n      pop\n        /* \"#utility.yul\":8682:8999   */\n      pop\n      pop\n        /* \"#utility.yul\":8606:8999   */\n      swap4\n      swap3\n      pop\n      pop\n      pop\n      jump\t// out\n        /* \"#utility.yul\":9005:9065   */\n    tag_112:\n        /* \"#utility.yul\":9033:9036   */\n      0x00\n        /* \"#utility.yul\":9054:9059   */\n      dup2\n        /* \"#utility.yul\":9047:9059   */\n      swap1\n      pop\n        /* \"#utility.yul\":9005:9065   */\n      swap2\n      swap1\n      pop\n      jump\t// out\n        /* \"#utility.yul\":9071:9213   */\n    tag_113:\n        /* \"#utility.yul\":9121:9130   */\n      0x00\n        /* \"#utility.yul\":9154:9207   */\n      tag_223\n        /* \"#utility.yul\":9172:9206   */\n      tag_224\n        /* \"#utility.yul\":9181:9205   */\n      tag_225\n        /* \"#utility.yul\":9199:9204   */\n      dup5\n        /* \"#utility.yul\":9181:9205   */\n      tag_97\n      jump\t// in\n    tag_225:\n        /* \"#utility.yul\":9172:9206   */\n      tag_112\n      jump\t// in\n    tag_224:\n        /* \"#utility.yul\":9154:9207   */\n      tag_97\n      jump\t// in\n    tag_223:\n        /* \"#utility.yul\":9141:9207   */\n      swap1\n      pop\n        /* \"#utility.yul\":9071:9213   */\n      swap2\n      swap1\n      pop\n      jump\t// out\n        /* \"#utility.yul\":9219:9294   */\n    tag_114:\n        /* \"#utility.yul\":9262:9265   */\n      0x00\n        /* \"#utility.yul\":9283:9288   */\n      dup2\n        /* \"#utility.yul\":9276:9288   */\n      swap1\n      pop\n        /* \"#utility.yul\":9219:9294   */\n      swap2\n      swap1\n      pop\n      jump\t// out\n        /* \"#utility.yul\":9300:9569   */\n    tag_115:\n        /* \"#utility.yul\":9410:9449   */\n      tag_228\n        /* \"#utility.yul\":9441:9448   */\n      dup4\n        /* \"#utility.yul\":9410:9449   */\n      tag_113\n      jump\t// in\n    tag_228:\n        /* \"#utility.yul\":9471:9562   */\n      tag_229\n        /* \"#utility.yul\":9520:9561   */\n      tag_230\n        /* \"#utility.yul\":9544:9560   */\n      dup3\n        /* \"#utility.yul\":9520:9561   */\n      tag_114\n      jump\t// in\n    tag_230:\n        /* \"#utility.yul\":9512:9518   */\n      dup5\n        /* \"#utility.yul\":9505:9509   */\n      dup5\n        /* \"#utility.yul\":9499:9510   */\n      sload\n        /* \"#utility.yul\":9471:9562   */\n      tag_111\n      jump\t// in\n    tag_229:\n        /* \"#utility.yul\":9465:9469   */\n      dup3\n        /* \"#utility.yul\":9458:9563   */\n      sstore\n        /* \"#utility.yul\":9376:9569   */\n      pop\n        /* \"#utility.yul\":9300:9569   */\n      pop\n      pop\n      pop\n      jump\t// out\n        /* \"#utility.yul\":9575:9648   */\n    tag_116:\n        /* \"#utility.yul\":9620:9623   */\n      0x00\n        /* \"#utility.yul\":9575:9648   */\n      swap1\n      jump\t// out\n        /* \"#utility.yul\":9654:9843   */\n    tag_117:\n        /* \"#utility.yul\":9731:9763   */\n      tag_233\n      tag_116\n      jump\t// in\n    tag_233:\n        /* \"#utility.yul\":9772:9837   */\n      tag_234\n        /* \"#utility.yul\":9830:9836   */\n      dup2\n        /* \"#utility.yul\":9822:9828   */\n      dup5\n        /* \"#utility.yul\":9816:9820   */\n      dup5\n        /* \"#utility.yul\":9772:9837   */\n      tag_115\n      jump\t// in\n    tag_234:\n        /* \"#utility.yul\":9707:9843   */\n      pop\n        /* \"#utility.yul\":9654:9843   */\n      pop\n      pop\n      jump\t// out\n        /* \"#utility.yul\":9849:10035   */\n    tag_118:\n        /* \"#utility.yul\":9909:10029   */\n    tag_236:\n        /* \"#utility.yul\":9926:9929   */\n      dup2\n        /* \"#utility.yul\":9919:9924   */\n      dup2\n        /* \"#utility.yul\":9916:9930   */\n      lt\n        /* \"#utility.yul\":9909:10029   */\n      iszero\n      tag_238\n      jumpi\n        /* \"#utility.yul\":9980:10019   */\n      tag_239\n        /* \"#utility.yul\":10017:10018   */\n      0x00\n        /* \"#utility.yul\":10010:10015   */\n      dup3\n        /* \"#utility.yul\":9980:10019   */\n      tag_117\n      jump\t// in\n    tag_239:\n        /* \"#utility.yul\":9953:9954   */\n      0x01\n        /* \"#utility.yul\":9946:9951   */\n      dup2\n        /* \"#utility.yul\":9942:9955   */\n      add\n        /* \"#utility.yul\":9933:9955   */\n      swap1\n      pop\n        /* \"#utility.yul\":9909:10029   */\n      jump(tag_236)\n    tag_238:\n        /* \"#utility.yul\":9849:10035   */\n      pop\n      pop\n      jump\t// out\n        /* \"#utility.yul\":10041:10584   */\n    tag_119:\n        /* \"#utility.yul\":10142:10144   */\n      0x1f\n        /* \"#utility.yul\":10137:10140   */\n      dup3\n        /* \"#utility.yul\":10134:10145   */\n      gt\n        /* \"#utility.yul\":10131:10577   */\n      iszero\n      tag_241\n      jumpi\n        /* \"#utility.yul\":10176:10214   */\n      tag_242\n        /* \"#utility.yul\":10208:10213   */\n      dup2\n        /* \"#utility.yul\":10176:10214   */\n      tag_108\n      jump\t// in\n    tag_242:\n        /* \"#utility.yul\":10260:10289   */\n      tag_243\n        /* \"#utility.yul\":10278:10288   */\n      dup5\n        /* \"#utility.yul\":10260:10289   */\n      tag_109\n      jump\t// in\n    tag_243:\n        /* \"#utility.yul\":10250:10258   */\n      dup2\n        /* \"#utility.yul\":10246:10290   */\n      add\n        /* \"#utility.yul\":10443:10445   */\n      0x20\n        /* \"#utility.yul\":10431:10441   */\n      dup6\n        /* \"#utility.yul\":10428:10446   */\n      lt\n        /* \"#utility.yul\":10425:10474   */\n      iszero\n      tag_244\n      jumpi\n        /* \"#utility.yul\":10464:10472   */\n      dup2\n        /* \"#utility.yul\":10449:10472   */\n      swap1\n      pop\n        /* \"#utility.yul\":10425:10474   */\n    tag_244:\n        /* \"#utility.yul\":10487:10567   */\n      tag_245\n        /* \"#utility.yul\":10543:10565   */\n      tag_246\n        /* \"#utility.yul\":10561:10564   */\n      dup6\n        /* \"#utility.yul\":10543:10565   */\n      tag_109\n      jump\t// in\n    tag_246:\n        /* \"#utility.yul\":10533:10541   */\n      dup4\n        /* \"#utility.yul\":10529:10566   */\n      add\n        /* \"#utility.yul\":10516:10527   */\n      dup3\n        /* \"#utility.yul\":10487:10567   */\n      tag_118\n      jump\t// in\n    tag_245:\n        /* \"#utility.yul\":10146:10577   */\n      pop\n      pop\n        /* \"#utility.yul\":10131:10577   */\n    tag_241:\n        /* \"#utility.yul\":10041:10584   */\n      pop\n      pop\n      pop\n      jump\t// out\n        /* \"#utility.yul\":10590:10707   */\n    tag_120:\n        /* \"#utility.yul\":10644:10652   */\n      0x00\n        /* \"#utility.yul\":10694:10699   */\n      dup3\n        /* \"#utility.yul\":10688:10692   */\n      dup3\n        /* \"#utility.yul\":10684:10700   */\n      shr\n        /* \"#utility.yul\":10663:10700   */\n      swap1\n      pop\n        /* \"#utility.yul\":10590:10707   */\n      swap3\n      swap2\n      pop\n      pop\n      jump\t// out\n        /* \"#utility.yul\":10713:10882   */\n    tag_121:\n        /* \"#utility.yul\":10757:10763   */\n      0x00\n        /* \"#utility.yul\":10790:10841   */\n      tag_249\n        /* \"#utility.yul\":10838:10839   */\n      0x00\n        /* \"#utility.yul\":10834:10840   */\n      not\n        /* \"#utility.yul\":10826:10831   */\n      dup5\n        /* \"#utility.yul\":10823:10824   */\n      0x08\n        /* \"#utility.yul\":10819:10832   */\n      mul\n        /* \"#utility.yul\":10790:10841   */\n      tag_120\n      jump\t// in\n    tag_249:\n        /* \"#utility.yul\":10786:10842   */\n      not\n        /* \"#utility.yul\":10871:10875   */\n      dup1\n        /* \"#utility.yul\":10865:10869   */\n      dup4\n        /* \"#utility.yul\":10861:10876   */\n      and\n        /* \"#utility.yul\":10851:10876   */\n      swap2\n      pop\n        /* \"#utility.yul\":10764:10882   */\n      pop\n        /* \"#utility.yul\":10713:10882   */\n      swap3\n      swap2\n      pop\n      pop\n      jump\t// out\n        /* \"#utility.yul\":10887:11182   */\n    tag_122:\n        /* \"#utility.yul\":10963:10967   */\n      0x00\n        /* \"#utility.yul\":11109:11138   */\n      tag_251\n        /* \"#utility.yul\":11134:11137   */\n      dup4\n        /* \"#utility.yul\":11128:11132   */\n      dup4\n        /* \"#utility.yul\":11109:11138   */\n      tag_121\n      jump\t// in\n    tag_251:\n        /* \"#utility.yul\":11101:11138   */\n      swap2\n      pop\n        /* \"#utility.yul\":11171:11174   */\n      dup3\n        /* \"#utility.yul\":11168:11169   */\n      0x02\n        /* \"#utility.yul\":11164:11175   */\n      mul\n        /* \"#utility.yul\":11158:11162   */\n      dup3\n        /* \"#utility.yul\":11155:11176   */\n      or\n        /* \"#utility.yul\":11147:11176   */\n      swap1\n      pop\n        /* \"#utility.yul\":10887:11182   */\n      swap3\n      swap2\n      pop\n      pop\n      jump\t// out\n        /* \"#utility.yul\":11187:12582   */\n    tag_38:\n        /* \"#utility.yul\":11304:11341   */\n      tag_253\n        /* \"#utility.yul\":11337:11340   */\n      dup3\n        /* \"#utility.yul\":11304:11341   */\n      tag_99\n      jump\t// in\n    tag_253:\n        /* \"#utility.yul\":11406:11424   */\n      0xffffffffffffffff\n        /* \"#utility.yul\":11398:11404   */\n      dup2\n        /* \"#utility.yul\":11395:11425   */\n      gt\n        /* \"#utility.yul\":11392:11448   */\n      iszero\n      tag_254\n      jumpi\n        /* \"#utility.yul\":11428:11446   */\n      tag_255\n      tag_90\n      jump\t// in\n    tag_255:\n        /* \"#utility.yul\":11392:11448   */\n    tag_254:\n        /* \"#utility.yul\":11472:11510   */\n      tag_256\n        /* \"#utility.yul\":11504:11508   */\n      dup3\n        /* \"#utility.yul\":11498:11509   */\n      sload\n        /* \"#utility.yul\":11472:11510   */\n      tag_45\n      jump\t// in\n    tag_256:\n        /* \"#utility.yul\":11557:11624   */\n      tag_257\n        /* \"#utility.yul\":11617:11623   */\n      dup3\n        /* \"#utility.yul\":11609:11615   */\n      dup3\n        /* \"#utility.yul\":11603:11607   */\n      dup6\n        /* \"#utility.yul\":11557:11624   */\n      tag_119\n      jump\t// in\n    tag_257:\n        /* \"#utility.yul\":11651:11652   */\n      0x00\n        /* \"#utility.yul\":11675:11679   */\n      0x20\n        /* \"#utility.yul\":11662:11679   */\n      swap1\n      pop\n        /* \"#utility.yul\":11707:11709   */\n      0x1f\n        /* \"#utility.yul\":11699:11705   */\n      dup4\n        /* \"#utility.yul\":11696:11710   */\n      gt\n        /* \"#utility.yul\":11724:11725   */\n      0x01\n        /* \"#utility.yul\":11719:12337   */\n      dup2\n      eq\n      tag_259\n      jumpi\n        /* \"#utility.yul\":12381:12382   */\n      0x00\n        /* \"#utility.yul\":12398:12404   */\n      dup5\n        /* \"#utility.yul\":12395:12472   */\n      iszero\n      tag_260\n      jumpi\n        /* \"#utility.yul\":12447:12456   */\n      dup3\n        /* \"#utility.yul\":12442:12445   */\n      dup8\n        /* \"#utility.yul\":12438:12457   */\n      add\n        /* \"#utility.yul\":12432:12458   */\n      mload\n        /* \"#utility.yul\":12423:12458   */\n      swap1\n      pop\n        /* \"#utility.yul\":12395:12472   */\n    tag_260:\n        /* \"#utility.yul\":12498:12565   */\n      tag_261\n        /* \"#utility.yul\":12558:12564   */\n      dup6\n        /* \"#utility.yul\":12551:12556   */\n      dup3\n        /* \"#utility.yul\":12498:12565   */\n      tag_122\n      jump\t// in\n    tag_261:\n        /* \"#utility.yul\":12492:12496   */\n      dup7\n        /* \"#utility.yul\":12485:12566   */\n      sstore\n        /* \"#utility.yul\":12354:12576   */\n      pop\n        /* \"#utility.yul\":11689:12576   */\n      jump(tag_258)\n        /* \"#utility.yul\":11719:12337   */\n    tag_259:\n        /* \"#utility.yul\":11771:11775   */\n      0x1f\n        /* \"#utility.yul\":11767:11776   */\n      not\n        /* \"#utility.yul\":11759:11765   */\n      dup5\n        /* \"#utility.yul\":11755:11777   */\n      and\n        /* \"#utility.yul\":11805:11842   */\n      tag_262\n        /* \"#utility.yul\":11837:11841   */\n      dup7\n        /* \"#utility.yul\":11805:11842   */\n      tag_108\n      jump\t// in\n    tag_262:\n        /* \"#utility.yul\":11864:11865   */\n      0x00\n        /* \"#utility.yul\":11878:12086   */\n    tag_263:\n        /* \"#utility.yul\":11892:11899   */\n      dup3\n        /* \"#utility.yul\":11889:11890   */\n      dup2\n        /* \"#utility.yul\":11886:11900   */\n      lt\n        /* \"#utility.yul\":11878:12086   */\n      iszero\n      tag_265\n      jumpi\n        /* \"#utility.yul\":11971:11980   */\n      dup5\n        /* \"#utility.yul\":11966:11969   */\n      dup10\n        /* \"#utility.yul\":11962:11981   */\n      add\n        /* \"#utility.yul\":11956:11982   */\n      mload\n        /* \"#utility.yul\":11948:11954   */\n      dup3\n        /* \"#utility.yul\":11941:11983   */\n      sstore\n        /* \"#utility.yul\":12022:12023   */\n      0x01\n        /* \"#utility.yul\":12014:12020   */\n      dup3\n        /* \"#utility.yul\":12010:12024   */\n      add\n        /* \"#utility.yul\":12000:12024   */\n      swap2\n      pop\n        /* \"#utility.yul\":12069:12071   */\n      0x20\n        /* \"#utility.yul\":12058:12067   */\n      dup6\n        /* \"#utility.yul\":12054:12072   */\n      add\n        /* \"#utility.yul\":12041:12072   */\n      swap5\n      pop\n        /* \"#utility.yul\":11915:11919   */\n      0x20\n        /* \"#utility.yul\":11912:11913   */\n      dup2\n        /* \"#utility.yul\":11908:11920   */\n      add\n        /* \"#utility.yul\":11903:11920   */\n      swap1\n      pop\n        /* \"#utility.yul\":11878:12086   */\n      jump(tag_263)\n    tag_265:\n        /* \"#utility.yul\":12114:12120   */\n      dup7\n        /* \"#utility.yul\":12105:12112   */\n      dup4\n        /* \"#utility.yul\":12102:12121   */\n      lt\n        /* \"#utility.yul\":12099:12278   */\n      iszero\n      tag_266\n      jumpi\n        /* \"#utility.yul\":12172:12181   */\n      dup5\n        /* \"#utility.yul\":12167:12170   */\n      dup10\n        /* \"#utility.yul\":12163:12182   */\n      add\n        /* \"#utility.yul\":12157:12183   */\n      mload\n        /* \"#utility.yul\":12215:12263   */\n      tag_267\n        /* \"#utility.yul\":12257:12261   */\n      0x1f\n        /* \"#utility.yul\":12249:12255   */\n      dup10\n        /* \"#utility.yul\":12245:12262   */\n      and\n        /* \"#utility.yul\":12234:12243   */\n      dup3\n        /* \"#utility.yul\":12215:12263   */\n      tag_121\n      jump\t// in\n    tag_267:\n        /* \"#utility.yul\":12207:12213   */\n      dup4\n        /* \"#utility.yul\":12200:12264   */\n      sstore\n        /* \"#utility.yul\":12122:12278   */\n      pop\n        /* \"#utility.yul\":12099:12278   */\n    tag_266:\n        /* \"#utility.yul\":12324:12325   */\n      0x01\n        /* \"#utility.yul\":12320:12321   */\n      0x02\n        /* \"#utility.yul\":12312:12318   */\n      dup9\n        /* \"#utility.yul\":12308:12322   */\n      mul\n        /* \"#utility.yul\":12304:12326   */\n      add\n        /* \"#utility.yul\":12298:12302   */\n      dup9\n        /* \"#utility.yul\":12291:12327   */\n      sstore\n        /* \"#utility.yul\":11726:12337   */\n      pop\n      pop\n      pop\n        /* \"#utility.yul\":11689:12576   */\n    tag_258:\n      pop\n        /* \"#utility.yul\":11279:12582   */\n      pop\n      pop\n      pop\n        /* \"#utility.yul\":11187:12582   */\n      pop\n      pop\n      jump\t// out\n        /* \"#utility.yul\":12588:13102   */\n    tag_42:\n        /* \"#utility.yul\":12749:12753   */\n      0x00\n        /* \"#utility.yul\":12787:12789   */\n      0x40\n        /* \"#utility.yul\":12776:12785   */\n      dup3\n        /* \"#utility.yul\":12772:12790   */\n      add\n        /* \"#utility.yul\":12764:12790   */\n      swap1\n      pop\n        /* \"#utility.yul\":12836:12845   */\n      dup2\n        /* \"#utility.yul\":12830:12834   */\n      dup2\n        /* \"#utility.yul\":12826:12846   */\n      sub\n        /* \"#utility.yul\":12822:12823   */\n      0x00\n        /* \"#utility.yul\":12811:12820   */\n      dup4\n        /* \"#utility.yul\":12807:12824   */\n      add\n        /* \"#utility.yul\":12800:12847   */\n      mstore\n        /* \"#utility.yul\":12864:12942   */\n      tag_269\n        /* \"#utility.yul\":12937:12941   */\n      dup2\n        /* \"#utility.yul\":12928:12934   */\n      dup6\n        /* \"#utility.yul\":12864:12942   */\n      tag_102\n      jump\t// in\n    tag_269:\n        /* \"#utility.yul\":12856:12942   */\n      swap1\n      pop\n        /* \"#utility.yul\":12989:12998   */\n      dup2\n        /* \"#utility.yul\":12983:12987   */\n      dup2\n        /* \"#utility.yul\":12979:12999   */\n      sub\n        /* \"#utility.yul\":12974:12976   */\n      0x20\n        /* \"#utility.yul\":12963:12972   */\n      dup4\n        /* \"#utility.yul\":12959:12977   */\n      add\n        /* \"#utility.yul\":12952:13000   */\n      mstore\n        /* \"#utility.yul\":13017:13095   */\n      tag_270\n        /* \"#utility.yul\":13090:13094   */\n      dup2\n        /* \"#utility.yul\":13081:13087   */\n      dup5\n        /* \"#utility.yul\":13017:13095   */\n      tag_102\n      jump\t// in\n    tag_270:\n        /* \"#utility.yul\":13009:13095   */\n      swap1\n      pop\n        /* \"#utility.yul\":12588:13102   */\n      swap4\n      swap3\n      pop\n      pop\n      pop\n      jump\t// out\n        /* \"#utility.yul\":13108:13288   */\n    tag_123:\n        /* \"#utility.yul\":13156:13233   */\n      0x4e487b7100000000000000000000000000000000000000000000000000000000\n        /* \"#utility.yul\":13153:13154   */\n      0x00\n        /* \"#utility.yul\":13146:13234   */\n      mstore\n        /* \"#utility.yul\":13253:13257   */\n      0x11\n        /* \"#utility.yul\":13250:13251   */\n      0x04\n        /* \"#utility.yul\":13243:13258   */\n      mstore\n        /* \"#utility.yul\":13277:13281   */\n      0x24\n        /* \"#utility.yul\":13274:13275   */\n      0x00\n        /* \"#utility.yul\":13267:13282   */\n      revert\n        /* \"#utility.yul\":13294:13485   */\n    tag_78:\n        /* \"#utility.yul\":13334:13337   */\n      0x00\n        /* \"#utility.yul\":13353:13373   */\n      tag_273\n        /* \"#utility.yul\":13371:13372   */\n      dup3\n        /* \"#utility.yul\":13353:13373   */\n      tag_97\n      jump\t// in\n    tag_273:\n        /* \"#utility.yul\":13348:13373   */\n      swap2\n      pop\n        /* \"#utility.yul\":13387:13407   */\n      tag_274\n        /* \"#utility.yul\":13405:13406   */\n      dup4\n        /* \"#utility.yul\":13387:13407   */\n      tag_97\n      jump\t// in\n    tag_274:\n        /* \"#utility.yul\":13382:13407   */\n      swap3\n      pop\n        /* \"#utility.yul\":13430:13431   */\n      dup3\n        /* \"#utility.yul\":13427:13428   */\n      dup3\n        /* \"#utility.yul\":13423:13432   */\n      add\n        /* \"#utility.yul\":13416:13432   */\n      swap1\n      pop\n        /* \"#utility.yul\":13451:13454   */\n      dup1\n        /* \"#utility.yul\":13448:13449   */\n      dup3\n        /* \"#utility.yul\":13445:13455   */\n      gt\n        /* \"#utility.yul\":13442:13478   */\n      iszero\n      tag_275\n      jumpi\n        /* \"#utility.yul\":13458:13476   */\n      tag_276\n      tag_123\n      jump\t// in\n    tag_276:\n        /* \"#utility.yul\":13442:13478   */\n    tag_275:\n        /* \"#utility.yul\":13294:13485   */\n      swap3\n      swap2\n      pop\n      pop\n      jump\t// out\n\n    auxdata: 0xa2646970667358221220db494c8728640dd9835cf8d039a62c99106b5b42565691758c5e72b9a16dd94464736f6c634300081a0033\n}\n",
				"bytecode": {
					"linkReferences": {},
					"object": "6080604052348015600e575f80fd5b50610f088061001c5f395ff3fe608060405234801561000f575f80fd5b5060043610610060575f3560e01c8063049a380d14610064578063126cbe60146100805780636016dd4a146100b057806370dd0dbc146100e357806381a4af1514610116578063eedc966a14610132575b5f80fd5b61007e60048036038101906100799190610926565b610162565b005b61009a600480360381019061009591906109de565b61027a565b6040516100a79190610a21565b60405180910390f35b6100ca60048036038101906100c591906109de565b6102c0565b6040516100da9493929190610ab4565b60405180910390f35b6100fd60048036038101906100f891906109de565b610489565b60405161010d9493929190610ab4565b60405180910390f35b610130600480360381019061012b9190610b36565b6106c5565b005b61014c600480360381019061014791906109de565b61076a565b6040516101599190610a21565b60405180910390f35b6040518060800160405280848152602001838152602001828152602001600115158152505f808673ffffffffffffffffffffffffffffffffffffffff1673ffffffffffffffffffffffffffffffffffffffff1681526020019081526020015f205f820151815f0190816101d59190610d6e565b5060208201518160010190816101eb9190610d6e565b5060408201518160020190816102019190610d6e565b506060820151816003015f6101000a81548160ff0219169083151502179055509050508373ffffffffffffffffffffffffffffffffffffffff167f5e47cc5e78fcec6fad5ce55daef3ac5f5aaf88a7910c1b7bffcf5170dd15232a848360405161026c929190610e3d565b60405180910390a250505050565b5f60015f8373ffffffffffffffffffffffffffffffffffffffff1673ffffffffffffffffffffffffffffffffffffffff1681526020019081526020015f20549050919050565b5f602052805f5260405f205f91509050805f0180546102de90610ba1565b80601f016020809104026020016040519081016040528092919081815260200182805461030a90610ba1565b80156103555780601f1061032c57610100808354040283529160200191610355565b820191905f5260205f20905b81548152906001019060200180831161033857829003601f168201915b50505050509080600101805461036a90610ba1565b80601f016020809104026020016040519081016040528092919081815260200182805461039690610ba1565b80156103e15780601f106103b8576101008083540402835291602001916103e1565b820191905f5260205f20905b8154815290600101906020018083116103c457829003601f168201915b5050505050908060020180546103f690610ba1565b80601f016020809104026020016040519081016040528092919081815260200182805461042290610ba1565b801561046d5780601f106104445761010080835404028352916020019161046d565b820191905f5260205f20905b81548152906001019060200180831161045057829003601f168201915b505050505090806003015f9054906101000a900460ff16905084565b60608060605f805f808773ffffffffffffffffffffffffffffffffffffffff1673ffffffffffffffffffffffffffffffffffffffff1681526020019081526020015f206040518060800160405290815f820180546104e690610ba1565b80601f016020809104026020016040519081016040528092919081815260200182805461051290610ba1565b801561055d5780601f106105345761010080835404028352916020019161055d565b820191905f5260205f20905b81548152906001019060200180831161054057829003601f168201915b5050505050815260200160018201805461057690610ba1565b80601f01602080910402602001604051908101604052809291908181526020018280546105a290610ba1565b80156105ed5780601f106105c4576101008083540402835291602001916105ed565b820191905f5260205f20905b8154815290600101906020018083116105d057829003601f168201915b5050505050815260200160028201805461060690610ba1565b80601f016020809104026020016040519081016040528092919081815260200182805461063290610ba1565b801561067d5780601f106106545761010080835404028352916020019161067d565b820191905f5260205f20905b81548152906001019060200180831161066057829003601f168201915b50505050508152602001600382015f9054906101000a900460ff1615151515815250509050805f01518160200151826040015183606001519450945094509450509193509193565b8060015f8473ffffffffffffffffffffffffffffffffffffffff1673ffffffffffffffffffffffffffffffffffffffff1681526020019081526020015f205f8282546107119190610e9f565b925050819055508173ffffffffffffffffffffffffffffffffffffffff167f0d3ecba324ef5a283bcbd5d1a966cab18661432ab3575740c588f7a0144b0dfa8260405161075e9190610a21565b60405180910390a25050565b6001602052805f5260405f205f915090505481565b5f604051905090565b5f80fd5b5f80fd5b5f73ffffffffffffffffffffffffffffffffffffffff82169050919050565b5f6107b982610790565b9050919050565b6107c9816107af565b81146107d3575f80fd5b50565b5f813590506107e4816107c0565b92915050565b5f80fd5b5f80fd5b5f601f19601f8301169050919050565b7f4e487b71000000000000000000000000000000000000000000000000000000005f52604160045260245ffd5b610838826107f2565b810181811067ffffffffffffffff8211171561085757610856610802565b5b80604052505050565b5f61086961077f565b9050610875828261082f565b919050565b5f67ffffffffffffffff82111561089457610893610802565b5b61089d826107f2565b9050602081019050919050565b828183375f83830152505050565b5f6108ca6108c58461087a565b610860565b9050828152602081018484840111156108e6576108e56107ee565b5b6108f18482856108aa565b509392505050565b5f82601f83011261090d5761090c6107ea565b5b813561091d8482602086016108b8565b91505092915050565b5f805f806080858703121561093e5761093d610788565b5b5f61094b878288016107d6565b945050602085013567ffffffffffffffff81111561096c5761096b61078c565b5b610978878288016108f9565b935050604085013567ffffffffffffffff8111156109995761099861078c565b5b6109a5878288016108f9565b925050606085013567ffffffffffffffff8111156109c6576109c561078c565b5b6109d2878288016108f9565b91505092959194509250565b5f602082840312156109f3576109f2610788565b5b5f610a00848285016107d6565b91505092915050565b5f819050919050565b610a1b81610a09565b82525050565b5f602082019050610a345f830184610a12565b92915050565b5f81519050919050565b5f82825260208201905092915050565b8281835e5f83830152505050565b5f610a6c82610a3a565b610a768185610a44565b9350610a86818560208601610a54565b610a8f816107f2565b840191505092915050565b5f8115159050919050565b610aae81610a9a565b82525050565b5f6080820190508181035f830152610acc8187610a62565b90508181036020830152610ae08186610a62565b90508181036040830152610af48185610a62565b9050610b036060830184610aa5565b95945050505050565b610b1581610a09565b8114610b1f575f80fd5b50565b5f81359050610b3081610b0c565b92915050565b5f8060408385031215610b4c57610b4b610788565b5b5f610b59858286016107d6565b9250506020610b6a85828601610b22565b9150509250929050565b7f4e487b71000000000000000000000000000000000000000000000000000000005f52602260045260245ffd5b5f6002820490506001821680610bb857607f821691505b602082108103610bcb57610bca610b74565b5b50919050565b5f819050815f5260205f209050919050565b5f6020601f8301049050919050565b5f82821b905092915050565b5f60088302610c2d7fffffffffffffffffffffffffffffffffffffffffffffffffffffffffffffffff82610bf2565b610c378683610bf2565b95508019841693508086168417925050509392505050565b5f819050919050565b5f610c72610c6d610c6884610a09565b610c4f565b610a09565b9050919050565b5f819050919050565b610c8b83610c58565b610c9f610c9782610c79565b848454610bfe565b825550505050565b5f90565b610cb3610ca7565b610cbe818484610c82565b505050565b5b81811015610ce157610cd65f82610cab565b600181019050610cc4565b5050565b601f821115610d2657610cf781610bd1565b610d0084610be3565b81016020851015610d0f578190505b610d23610d1b85610be3565b830182610cc3565b50505b505050565b5f82821c905092915050565b5f610d465f1984600802610d2b565b1980831691505092915050565b5f610d5e8383610d37565b9150826002028217905092915050565b610d7782610a3a565b67ffffffffffffffff811115610d9057610d8f610802565b5b610d9a8254610ba1565b610da5828285610ce5565b5f60209050601f831160018114610dd6575f8415610dc4578287015190505b610dce8582610d53565b865550610e35565b601f198416610de486610bd1565b5f5b82811015610e0b57848901518255600182019150602085019450602081019050610de6565b86831015610e285784890151610e24601f891682610d37565b8355505b6001600288020188555050505b505050505050565b5f6040820190508181035f830152610e558185610a62565b90508181036020830152610e698184610a62565b90509392505050565b7f4e487b71000000000000000000000000000000000000000000000000000000005f52601160045260245ffd5b5f610ea982610a09565b9150610eb483610a09565b9250828201905080821115610ecc57610ecb610e72565b5b9291505056fea2646970667358221220db494c8728640dd9835cf8d039a62c99106b5b42565691758c5e72b9a16dd94464736f6c634300081a0033",
					"opcodes": "PUSH1 0x80 PUSH1 0x40 MSTORE CALLVALUE DUP1 ISZERO PUSH1 0xE JUMPI PUSH0 DUP1 REVERT JUMPDEST POP PUSH2 0xF08 DUP1 PUSH2 0x1C PUSH0 CODECOPY PUSH0 RETURN INVALID PUSH1 0x80 PUSH1 0x40 MSTORE CALLVALUE DUP1 ISZERO PUSH2 0xF JUMPI PUSH0 DUP1 REVERT JUMPDEST POP PUSH1 0x4 CALLDATASIZE LT PUSH2 0x60 JUMPI PUSH0 CALLDATALOAD PUSH1 0xE0 SHR DUP1 PUSH4 0x49A380D EQ PUSH2 0x64 JUMPI DUP1 PUSH4 0x126CBE60 EQ PUSH2 0x80 JUMPI DUP1 PUSH4 0x6016DD4A EQ PUSH2 0xB0 JUMPI DUP1 PUSH4 0x70DD0DBC EQ PUSH2 0xE3 JUMPI DUP1 PUSH4 0x81A4AF15 EQ PUSH2 0x116 JUMPI DUP1 PUSH4 0xEEDC966A EQ PUSH2 0x132 JUMPI JUMPDEST PUSH0 DUP1 REVERT JUMPDEST PUSH2 0x7E PUSH1 0x4 DUP1 CALLDATASIZE SUB DUP2 ADD SWAP1 PUSH2 0x79 SWAP2 SWAP1 PUSH2 0x926 JUMP JUMPDEST PUSH2 0x162 JUMP JUMPDEST STOP JUMPDEST PUSH2 0x9A PUSH1 0x4 DUP1 CALLDATASIZE SUB DUP2 ADD SWAP1 PUSH2 0x95 SWAP2 SWAP1 PUSH2 0x9DE JUMP JUMPDEST PUSH2 0x27A JUMP JUMPDEST PUSH1 0x40 MLOAD PUSH2 0xA7 SWAP2 SWAP1 PUSH2 0xA21 JUMP JUMPDEST PUSH1 0x40 MLOAD DUP1 SWAP2 SUB SWAP1 RETURN JUMPDEST PUSH2 0xCA PUSH1 0x4 DUP1 CALLDATASIZE SUB DUP2 ADD SWAP1 PUSH2 0xC5 SWAP2 SWAP1 PUSH2 0x9DE JUMP JUMPDEST PUSH2 0x2C0 JUMP JUMPDEST PUSH1 0x40 MLOAD PUSH2 0xDA SWAP5 SWAP4 SWAP3 SWAP2 SWAP1 PUSH2 0xAB4 JUMP JUMPDEST PUSH1 0x40 MLOAD DUP1 SWAP2 SUB SWAP1 RETURN JUMPDEST PUSH2 0xFD PUSH1 0x4 DUP1 CALLDATASIZE SUB DUP2 ADD SWAP1 PUSH2 0xF8 SWAP2 SWAP1 PUSH2 0x9DE JUMP JUMPDEST PUSH2 0x489 JUMP JUMPDEST PUSH1 0x40 MLOAD PUSH2 0x10D SWAP5 SWAP4 SWAP3 SWAP2 SWAP1 PUSH2 0xAB4 JUMP JUMPDEST PUSH1 0x40 MLOAD DUP1 SWAP2 SUB SWAP1 RETURN JUMPDEST PUSH2 0x130 PUSH1 0x4 DUP1 CALLDATASIZE SUB DUP2 ADD SWAP1 PUSH2 0x12B SWAP2 SWAP1 PUSH2 0xB36 JUMP JUMPDEST PUSH2 0x6C5 JUMP JUMPDEST STOP JUMPDEST PUSH2 0x14C PUSH1 0x4 DUP1 CALLDATASIZE SUB DUP2 ADD SWAP1 PUSH2 0x147 SWAP2 SWAP1 PUSH2 0x9DE JUMP JUMPDEST PUSH2 0x76A JUMP JUMPDEST PUSH1 0x40 MLOAD PUSH2 0x159 SWAP2 SWAP1 PUSH2 0xA21 JUMP JUMPDEST PUSH1 0x40 MLOAD DUP1 SWAP2 SUB SWAP1 RETURN JUMPDEST PUSH1 0x40 MLOAD DUP1 PUSH1 0x80 ADD PUSH1 0x40 MSTORE DUP1 DUP5 DUP2 MSTORE PUSH1 0x20 ADD DUP4 DUP2 MSTORE PUSH1 0x20 ADD DUP3 DUP2 MSTORE PUSH1 0x20 ADD PUSH1 0x1 ISZERO ISZERO DUP2 MSTORE POP PUSH0 DUP1 DUP7 PUSH20 0xFFFFFFFFFFFFFFFFFFFFFFFFFFFFFFFFFFFFFFFF AND PUSH20 0xFFFFFFFFFFFFFFFFFFFFFFFFFFFFFFFFFFFFFFFF AND DUP2 MSTORE PUSH1 0x20 ADD SWAP1 DUP2 MSTORE PUSH1 0x20 ADD PUSH0 KECCAK256 PUSH0 DUP3 ADD MLOAD DUP2 PUSH0 ADD SWAP1 DUP2 PUSH2 0x1D5 SWAP2 SWAP1 PUSH2 0xD6E JUMP JUMPDEST POP PUSH1 0x20 DUP3 ADD MLOAD DUP2 PUSH1 0x1 ADD SWAP1 DUP2 PUSH2 0x1EB SWAP2 SWAP1 PUSH2 0xD6E JUMP JUMPDEST POP PUSH1 0x40 DUP3 ADD MLOAD DUP2 PUSH1 0x2 ADD SWAP1 DUP2 PUSH2 0x201 SWAP2 SWAP1 PUSH2 0xD6E JUMP JUMPDEST POP PUSH1 0x60 DUP3 ADD MLOAD DUP2 PUSH1 0x3 ADD PUSH0 PUSH2 0x100 EXP DUP2 SLOAD DUP2 PUSH1 0xFF MUL NOT AND SWAP1 DUP4 ISZERO ISZERO MUL OR SWAP1 SSTORE POP SWAP1 POP POP DUP4 PUSH20 0xFFFFFFFFFFFFFFFFFFFFFFFFFFFFFFFFFFFFFFFF AND PUSH32 0x5E47CC5E78FCEC6FAD5CE55DAEF3AC5F5AAF88A7910C1B7BFFCF5170DD15232A DUP5 DUP4 PUSH1 0x40 MLOAD PUSH2 0x26C SWAP3 SWAP2 SWAP1 PUSH2 0xE3D JUMP JUMPDEST PUSH1 0x40 MLOAD DUP1 SWAP2 SUB SWAP1 LOG2 POP POP POP POP JUMP JUMPDEST PUSH0 PUSH1 0x1 PUSH0 DUP4 PUSH20 0xFFFFFFFFFFFFFFFFFFFFFFFFFFFFFFFFFFFFFFFF AND PUSH20 0xFFFFFFFFFFFFFFFFFFFFFFFFFFFFFFFFFFFFFFFF AND DUP2 MSTORE PUSH1 0x20 ADD SWAP1 DUP2 MSTORE PUSH1 0x20 ADD PUSH0 KECCAK256 SLOAD SWAP1 POP SWAP2 SWAP1 POP JUMP JUMPDEST PUSH0 PUSH1 0x20 MSTORE DUP1 PUSH0 MSTORE PUSH1 0x40 PUSH0 KECCAK256 PUSH0 SWAP2 POP SWAP1 POP DUP1 PUSH0 ADD DUP1 SLOAD PUSH2 0x2DE SWAP1 PUSH2 0xBA1 JUMP JUMPDEST DUP1 PUSH1 0x1F ADD PUSH1 0x20 DUP1 SWAP2 DIV MUL PUSH1 0x20 ADD PUSH1 0x40 MLOAD SWAP1 DUP2 ADD PUSH1 0x40 MSTORE DUP1 SWAP3 SWAP2 SWAP1 DUP2 DUP2 MSTORE PUSH1 0x20 ADD DUP3 DUP1 SLOAD PUSH2 0x30A SWAP1 PUSH2 0xBA1 JUMP JUMPDEST DUP1 ISZERO PUSH2 0x355 JUMPI DUP1 PUSH1 0x1F LT PUSH2 0x32C JUMPI PUSH2 0x100 DUP1 DUP4 SLOAD DIV MUL DUP4 MSTORE SWAP2 PUSH1 0x20 ADD SWAP2 PUSH2 0x355 JUMP JUMPDEST DUP3 ADD SWAP2 SWAP1 PUSH0 MSTORE PUSH1 0x20 PUSH0 KECCAK256 SWAP1 JUMPDEST DUP2 SLOAD DUP2 MSTORE SWAP1 PUSH1 0x1 ADD SWAP1 PUSH1 0x20 ADD DUP1 DUP4 GT PUSH2 0x338 JUMPI DUP3 SWAP1 SUB PUSH1 0x1F AND DUP3 ADD SWAP2 JUMPDEST POP POP POP POP POP SWAP1 DUP1 PUSH1 0x1 ADD DUP1 SLOAD PUSH2 0x36A SWAP1 PUSH2 0xBA1 JUMP JUMPDEST DUP1 PUSH1 0x1F ADD PUSH1 0x20 DUP1 SWAP2 DIV MUL PUSH1 0x20 ADD PUSH1 0x40 MLOAD SWAP1 DUP2 ADD PUSH1 0x40 MSTORE DUP1 SWAP3 SWAP2 SWAP1 DUP2 DUP2 MSTORE PUSH1 0x20 ADD DUP3 DUP1 SLOAD PUSH2 0x396 SWAP1 PUSH2 0xBA1 JUMP JUMPDEST DUP1 ISZERO PUSH2 0x3E1 JUMPI DUP1 PUSH1 0x1F LT PUSH2 0x3B8 JUMPI PUSH2 0x100 DUP1 DUP4 SLOAD DIV MUL DUP4 MSTORE SWAP2 PUSH1 0x20 ADD SWAP2 PUSH2 0x3E1 JUMP JUMPDEST DUP3 ADD SWAP2 SWAP1 PUSH0 MSTORE PUSH1 0x20 PUSH0 KECCAK256 SWAP1 JUMPDEST DUP2 SLOAD DUP2 MSTORE SWAP1 PUSH1 0x1 ADD SWAP1 PUSH1 0x20 ADD DUP1 DUP4 GT PUSH2 0x3C4 JUMPI DUP3 SWAP1 SUB PUSH1 0x1F AND DUP3 ADD SWAP2 JUMPDEST POP POP POP POP POP SWAP1 DUP1 PUSH1 0x2 ADD DUP1 SLOAD PUSH2 0x3F6 SWAP1 PUSH2 0xBA1 JUMP JUMPDEST DUP1 PUSH1 0x1F ADD PUSH1 0x20 DUP1 SWAP2 DIV MUL PUSH1 0x20 ADD PUSH1 0x40 MLOAD SWAP1 DUP2 ADD PUSH1 0x40 MSTORE DUP1 SWAP3 SWAP2 SWAP1 DUP2 DUP2 MSTORE PUSH1 0x20 ADD DUP3 DUP1 SLOAD PUSH2 0x422 SWAP1 PUSH2 0xBA1 JUMP JUMPDEST DUP1 ISZERO PUSH2 0x46D JUMPI DUP1 PUSH1 0x1F LT PUSH2 0x444 JUMPI PUSH2 0x100 DUP1 DUP4 SLOAD DIV MUL DUP4 MSTORE SWAP2 PUSH1 0x20 ADD SWAP2 PUSH2 0x46D JUMP JUMPDEST DUP3 ADD SWAP2 SWAP1 PUSH0 MSTORE PUSH1 0x20 PUSH0 KECCAK256 SWAP1 JUMPDEST DUP2 SLOAD DUP2 MSTORE SWAP1 PUSH1 0x1 ADD SWAP1 PUSH1 0x20 ADD DUP1 DUP4 GT PUSH2 0x450 JUMPI DUP3 SWAP1 SUB PUSH1 0x1F AND DUP3 ADD SWAP2 JUMPDEST POP POP POP POP POP SWAP1 DUP1 PUSH1 0x3 ADD PUSH0 SWAP1 SLOAD SWAP1 PUSH2 0x100 EXP SWAP1 DIV PUSH1 0xFF AND SWAP1 POP DUP5 JUMP JUMPDEST PUSH1 0x60 DUP1 PUSH1 0x60 PUSH0 DUP1 PUSH0 DUP1 DUP8 PUSH20 0xFFFFFFFFFFFFFFFFFFFFFFFFFFFFFFFFFFFFFFFF AND PUSH20 0xFFFFFFFFFFFFFFFFFFFFFFFFFFFFFFFFFFFFFFFF AND DUP2 MSTORE PUSH1 0x20 ADD SWAP1 DUP2 MSTORE PUSH1 0x20 ADD PUSH0 KECCAK256 PUSH1 0x40 MLOAD DUP1 PUSH1 0x80 ADD PUSH1 0x40 MSTORE SWAP1 DUP2 PUSH0 DUP3 ADD DUP1 SLOAD PUSH2 0x4E6 SWAP1 PUSH2 0xBA1 JUMP JUMPDEST DUP1 PUSH1 0x1F ADD PUSH1 0x20 DUP1 SWAP2 DIV MUL PUSH1 0x20 ADD PUSH1 0x40 MLOAD SWAP1 DUP2 ADD PUSH1 0x40 MSTORE DUP1 SWAP3 SWAP2 SWAP1 DUP2 DUP2 MSTORE PUSH1 0x20 ADD DUP3 DUP1 SLOAD PUSH2 0x512 SWAP1 PUSH2 0xBA1 JUMP JUMPDEST DUP1 ISZERO PUSH2 0x55D JUMPI DUP1 PUSH1 0x1F LT PUSH2 0x534 JUMPI PUSH2 0x100 DUP1 DUP4 SLOAD DIV MUL DUP4 MSTORE SWAP2 PUSH1 0x20 ADD SWAP2 PUSH2 0x55D JUMP JUMPDEST DUP3 ADD SWAP2 SWAP1 PUSH0 MSTORE PUSH1 0x20 PUSH0 KECCAK256 SWAP1 JUMPDEST DUP2 SLOAD DUP2 MSTORE SWAP1 PUSH1 0x1 ADD SWAP1 PUSH1 0x20 ADD DUP1 DUP4 GT PUSH2 0x540 JUMPI DUP3 SWAP1 SUB PUSH1 0x1F AND DUP3 ADD SWAP2 JUMPDEST POP POP POP POP POP DUP2 MSTORE PUSH1 0x20 ADD PUSH1 0x1 DUP3 ADD DUP1 SLOAD PUSH2 0x576 SWAP1 PUSH2 0xBA1 JUMP JUMPDEST DUP1 PUSH1 0x1F ADD PUSH1 0x20 DUP1 SWAP2 DIV MUL PUSH1 0x20 ADD PUSH1 0x40 MLOAD SWAP1 DUP2 ADD PUSH1 0x40 MSTORE DUP1 SWAP3 SWAP2 SWAP1 DUP2 DUP2 MSTORE PUSH1 0x20 ADD DUP3 DUP1 SLOAD PUSH2 0x5A2 SWAP1 PUSH2 0xBA1 JUMP JUMPDEST DUP1 ISZERO PUSH2 0x5ED JUMPI DUP1 PUSH1 0x1F LT PUSH2 0x5C4 JUMPI PUSH2 0x100 DUP1 DUP4 SLOAD DIV MUL DUP4 MSTORE SWAP2 PUSH1 0x20 ADD SWAP2 PUSH2 0x5ED JUMP JUMPDEST DUP3 ADD SWAP2 SWAP1 PUSH0 MSTORE PUSH1 0x20 PUSH0 KECCAK256 SWAP1 JUMPDEST DUP2 SLOAD DUP2 MSTORE SWAP1 PUSH1 0x1 ADD SWAP1 PUSH1 0x20 ADD DUP1 DUP4 GT PUSH2 0x5D0 JUMPI DUP3 SWAP1 SUB PUSH1 0x1F AND DUP3 ADD SWAP2 JUMPDEST POP POP POP POP POP DUP2 MSTORE PUSH1 0x20 ADD PUSH1 0x2 DUP3 ADD DUP1 SLOAD PUSH2 0x606 SWAP1 PUSH2 0xBA1 JUMP JUMPDEST DUP1 PUSH1 0x1F ADD PUSH1 0x20 DUP1 SWAP2 DIV MUL PUSH1 0x20 ADD PUSH1 0x40 MLOAD SWAP1 DUP2 ADD PUSH1 0x40 MSTORE DUP1 SWAP3 SWAP2 SWAP1 DUP2 DUP2 MSTORE PUSH1 0x20 ADD DUP3 DUP1 SLOAD PUSH2 0x632 SWAP1 PUSH2 0xBA1 JUMP JUMPDEST DUP1 ISZERO PUSH2 0x67D JUMPI DUP1 PUSH1 0x1F LT PUSH2 0x654 JUMPI PUSH2 0x100 DUP1 DUP4 SLOAD DIV MUL DUP4 MSTORE SWAP2 PUSH1 0x20 ADD SWAP2 PUSH2 0x67D JUMP JUMPDEST DUP3 ADD SWAP2 SWAP1 PUSH0 MSTORE PUSH1 0x20 PUSH0 KECCAK256 SWAP1 JUMPDEST DUP2 SLOAD DUP2 MSTORE SWAP1 PUSH1 0x1 ADD SWAP1 PUSH1 0x20 ADD DUP1 DUP4 GT PUSH2 0x660 JUMPI DUP3 SWAP1 SUB PUSH1 0x1F AND DUP3 ADD SWAP2 JUMPDEST POP POP POP POP POP DUP2 MSTORE PUSH1 0x20 ADD PUSH1 0x3 DUP3 ADD PUSH0 SWAP1 SLOAD SWAP1 PUSH2 0x100 EXP SWAP1 DIV PUSH1 0xFF AND ISZERO ISZERO ISZERO ISZERO DUP2 MSTORE POP POP SWAP1 POP DUP1 PUSH0 ADD MLOAD DUP2 PUSH1 0x20 ADD MLOAD DUP3 PUSH1 0x40 ADD MLOAD DUP4 PUSH1 0x60 ADD MLOAD SWAP5 POP SWAP5 POP SWAP5 POP SWAP5 POP POP SWAP2 SWAP4 POP SWAP2 SWAP4 JUMP JUMPDEST DUP1 PUSH1 0x1 PUSH0 DUP5 PUSH20 0xFFFFFFFFFFFFFFFFFFFFFFFFFFFFFFFFFFFFFFFF AND PUSH20 0xFFFFFFFFFFFFFFFFFFFFFFFFFFFFFFFFFFFFFFFF AND DUP2 MSTORE PUSH1 0x20 ADD SWAP1 DUP2 MSTORE PUSH1 0x20 ADD PUSH0 KECCAK256 PUSH0 DUP3 DUP3 SLOAD PUSH2 0x711 SWAP2 SWAP1 PUSH2 0xE9F JUMP JUMPDEST SWAP3 POP POP DUP2 SWAP1 SSTORE POP DUP2 PUSH20 0xFFFFFFFFFFFFFFFFFFFFFFFFFFFFFFFFFFFFFFFF AND PUSH32 0xD3ECBA324EF5A283BCBD5D1A966CAB18661432AB3575740C588F7A0144B0DFA DUP3 PUSH1 0x40 MLOAD PUSH2 0x75E SWAP2 SWAP1 PUSH2 0xA21 JUMP JUMPDEST PUSH1 0x40 MLOAD DUP1 SWAP2 SUB SWAP1 LOG2 POP POP JUMP JUMPDEST PUSH1 0x1 PUSH1 0x20 MSTORE DUP1 PUSH0 MSTORE PUSH1 0x40 PUSH0 KECCAK256 PUSH0 SWAP2 POP SWAP1 POP SLOAD DUP2 JUMP JUMPDEST PUSH0 PUSH1 0x40 MLOAD SWAP1 POP SWAP1 JUMP JUMPDEST PUSH0 DUP1 REVERT JUMPDEST PUSH0 DUP1 REVERT JUMPDEST PUSH0 PUSH20 0xFFFFFFFFFFFFFFFFFFFFFFFFFFFFFFFFFFFFFFFF DUP3 AND SWAP1 POP SWAP2 SWAP1 POP JUMP JUMPDEST PUSH0 PUSH2 0x7B9 DUP3 PUSH2 0x790 JUMP JUMPDEST SWAP1 POP SWAP2 SWAP1 POP JUMP JUMPDEST PUSH2 0x7C9 DUP2 PUSH2 0x7AF JUMP JUMPDEST DUP2 EQ PUSH2 0x7D3 JUMPI PUSH0 DUP1 REVERT JUMPDEST POP JUMP JUMPDEST PUSH0 DUP2 CALLDATALOAD SWAP1 POP PUSH2 0x7E4 DUP2 PUSH2 0x7C0 JUMP JUMPDEST SWAP3 SWAP2 POP POP JUMP JUMPDEST PUSH0 DUP1 REVERT JUMPDEST PUSH0 DUP1 REVERT JUMPDEST PUSH0 PUSH1 0x1F NOT PUSH1 0x1F DUP4 ADD AND SWAP1 POP SWAP2 SWAP1 POP JUMP JUMPDEST PUSH32 0x4E487B7100000000000000000000000000000000000000000000000000000000 PUSH0 MSTORE PUSH1 0x41 PUSH1 0x4 MSTORE PUSH1 0x24 PUSH0 REVERT JUMPDEST PUSH2 0x838 DUP3 PUSH2 0x7F2 JUMP JUMPDEST DUP2 ADD DUP2 DUP2 LT PUSH8 0xFFFFFFFFFFFFFFFF DUP3 GT OR ISZERO PUSH2 0x857 JUMPI PUSH2 0x856 PUSH2 0x802 JUMP JUMPDEST JUMPDEST DUP1 PUSH1 0x40 MSTORE POP POP POP JUMP JUMPDEST PUSH0 PUSH2 0x869 PUSH2 0x77F JUMP JUMPDEST SWAP1 POP PUSH2 0x875 DUP3 DUP3 PUSH2 0x82F JUMP JUMPDEST SWAP2 SWAP1 POP JUMP JUMPDEST PUSH0 PUSH8 0xFFFFFFFFFFFFFFFF DUP3 GT ISZERO PUSH2 0x894 JUMPI PUSH2 0x893 PUSH2 0x802 JUMP JUMPDEST JUMPDEST PUSH2 0x89D DUP3 PUSH2 0x7F2 JUMP JUMPDEST SWAP1 POP PUSH1 0x20 DUP2 ADD SWAP1 POP SWAP2 SWAP1 POP JUMP JUMPDEST DUP3 DUP2 DUP4 CALLDATACOPY PUSH0 DUP4 DUP4 ADD MSTORE POP POP POP JUMP JUMPDEST PUSH0 PUSH2 0x8CA PUSH2 0x8C5 DUP5 PUSH2 0x87A JUMP JUMPDEST PUSH2 0x860 JUMP JUMPDEST SWAP1 POP DUP3 DUP2 MSTORE PUSH1 0x20 DUP2 ADD DUP5 DUP5 DUP5 ADD GT ISZERO PUSH2 0x8E6 JUMPI PUSH2 0x8E5 PUSH2 0x7EE JUMP JUMPDEST JUMPDEST PUSH2 0x8F1 DUP5 DUP3 DUP6 PUSH2 0x8AA JUMP JUMPDEST POP SWAP4 SWAP3 POP POP POP JUMP JUMPDEST PUSH0 DUP3 PUSH1 0x1F DUP4 ADD SLT PUSH2 0x90D JUMPI PUSH2 0x90C PUSH2 0x7EA JUMP JUMPDEST JUMPDEST DUP2 CALLDATALOAD PUSH2 0x91D DUP5 DUP3 PUSH1 0x20 DUP7 ADD PUSH2 0x8B8 JUMP JUMPDEST SWAP2 POP POP SWAP3 SWAP2 POP POP JUMP JUMPDEST PUSH0 DUP1 PUSH0 DUP1 PUSH1 0x80 DUP6 DUP8 SUB SLT ISZERO PUSH2 0x93E JUMPI PUSH2 0x93D PUSH2 0x788 JUMP JUMPDEST JUMPDEST PUSH0 PUSH2 0x94B DUP8 DUP3 DUP9 ADD PUSH2 0x7D6 JUMP JUMPDEST SWAP5 POP POP PUSH1 0x20 DUP6 ADD CALLDATALOAD PUSH8 0xFFFFFFFFFFFFFFFF DUP2 GT ISZERO PUSH2 0x96C JUMPI PUSH2 0x96B PUSH2 0x78C JUMP JUMPDEST JUMPDEST PUSH2 0x978 DUP8 DUP3 DUP9 ADD PUSH2 0x8F9 JUMP JUMPDEST SWAP4 POP POP PUSH1 0x40 DUP6 ADD CALLDATALOAD PUSH8 0xFFFFFFFFFFFFFFFF DUP2 GT ISZERO PUSH2 0x999 JUMPI PUSH2 0x998 PUSH2 0x78C JUMP JUMPDEST JUMPDEST PUSH2 0x9A5 DUP8 DUP3 DUP9 ADD PUSH2 0x8F9 JUMP JUMPDEST SWAP3 POP POP PUSH1 0x60 DUP6 ADD CALLDATALOAD PUSH8 0xFFFFFFFFFFFFFFFF DUP2 GT ISZERO PUSH2 0x9C6 JUMPI PUSH2 0x9C5 PUSH2 0x78C JUMP JUMPDEST JUMPDEST PUSH2 0x9D2 DUP8 DUP3 DUP9 ADD PUSH2 0x8F9 JUMP JUMPDEST SWAP2 POP POP SWAP3 SWAP6 SWAP2 SWAP5 POP SWAP3 POP JUMP JUMPDEST PUSH0 PUSH1 0x20 DUP3 DUP5 SUB SLT ISZERO PUSH2 0x9F3 JUMPI PUSH2 0x9F2 PUSH2 0x788 JUMP JUMPDEST JUMPDEST PUSH0 PUSH2 0xA00 DUP5 DUP3 DUP6 ADD PUSH2 0x7D6 JUMP JUMPDEST SWAP2 POP POP SWAP3 SWAP2 POP POP JUMP JUMPDEST PUSH0 DUP2 SWAP1 POP SWAP2 SWAP1 POP JUMP JUMPDEST PUSH2 0xA1B DUP2 PUSH2 0xA09 JUMP JUMPDEST DUP3 MSTORE POP POP JUMP JUMPDEST PUSH0 PUSH1 0x20 DUP3 ADD SWAP1 POP PUSH2 0xA34 PUSH0 DUP4 ADD DUP5 PUSH2 0xA12 JUMP JUMPDEST SWAP3 SWAP2 POP POP JUMP JUMPDEST PUSH0 DUP2 MLOAD SWAP1 POP SWAP2 SWAP1 POP JUMP JUMPDEST PUSH0 DUP3 DUP3 MSTORE PUSH1 0x20 DUP3 ADD SWAP1 POP SWAP3 SWAP2 POP POP JUMP JUMPDEST DUP3 DUP2 DUP4 MCOPY PUSH0 DUP4 DUP4 ADD MSTORE POP POP POP JUMP JUMPDEST PUSH0 PUSH2 0xA6C DUP3 PUSH2 0xA3A JUMP JUMPDEST PUSH2 0xA76 DUP2 DUP6 PUSH2 0xA44 JUMP JUMPDEST SWAP4 POP PUSH2 0xA86 DUP2 DUP6 PUSH1 0x20 DUP7 ADD PUSH2 0xA54 JUMP JUMPDEST PUSH2 0xA8F DUP2 PUSH2 0x7F2 JUMP JUMPDEST DUP5 ADD SWAP2 POP POP SWAP3 SWAP2 POP POP JUMP JUMPDEST PUSH0 DUP2 ISZERO ISZERO SWAP1 POP SWAP2 SWAP1 POP JUMP JUMPDEST PUSH2 0xAAE DUP2 PUSH2 0xA9A JUMP JUMPDEST DUP3 MSTORE POP POP JUMP JUMPDEST PUSH0 PUSH1 0x80 DUP3 ADD SWAP1 POP DUP2 DUP2 SUB PUSH0 DUP4 ADD MSTORE PUSH2 0xACC DUP2 DUP8 PUSH2 0xA62 JUMP JUMPDEST SWAP1 POP DUP2 DUP2 SUB PUSH1 0x20 DUP4 ADD MSTORE PUSH2 0xAE0 DUP2 DUP7 PUSH2 0xA62 JUMP JUMPDEST SWAP1 POP DUP2 DUP2 SUB PUSH1 0x40 DUP4 ADD MSTORE PUSH2 0xAF4 DUP2 DUP6 PUSH2 0xA62 JUMP JUMPDEST SWAP1 POP PUSH2 0xB03 PUSH1 0x60 DUP4 ADD DUP5 PUSH2 0xAA5 JUMP JUMPDEST SWAP6 SWAP5 POP POP POP POP POP JUMP JUMPDEST PUSH2 0xB15 DUP2 PUSH2 0xA09 JUMP JUMPDEST DUP2 EQ PUSH2 0xB1F JUMPI PUSH0 DUP1 REVERT JUMPDEST POP JUMP JUMPDEST PUSH0 DUP2 CALLDATALOAD SWAP1 POP PUSH2 0xB30 DUP2 PUSH2 0xB0C JUMP JUMPDEST SWAP3 SWAP2 POP POP JUMP JUMPDEST PUSH0 DUP1 PUSH1 0x40 DUP4 DUP6 SUB SLT ISZERO PUSH2 0xB4C JUMPI PUSH2 0xB4B PUSH2 0x788 JUMP JUMPDEST JUMPDEST PUSH0 PUSH2 0xB59 DUP6 DUP3 DUP7 ADD PUSH2 0x7D6 JUMP JUMPDEST SWAP3 POP POP PUSH1 0x20 PUSH2 0xB6A DUP6 DUP3 DUP7 ADD PUSH2 0xB22 JUMP JUMPDEST SWAP2 POP POP SWAP3 POP SWAP3 SWAP1 POP JUMP JUMPDEST PUSH32 0x4E487B7100000000000000000000000000000000000000000000000000000000 PUSH0 MSTORE PUSH1 0x22 PUSH1 0x4 MSTORE PUSH1 0x24 PUSH0 REVERT JUMPDEST PUSH0 PUSH1 0x2 DUP3 DIV SWAP1 POP PUSH1 0x1 DUP3 AND DUP1 PUSH2 0xBB8 JUMPI PUSH1 0x7F DUP3 AND SWAP2 POP JUMPDEST PUSH1 0x20 DUP3 LT DUP2 SUB PUSH2 0xBCB JUMPI PUSH2 0xBCA PUSH2 0xB74 JUMP JUMPDEST JUMPDEST POP SWAP2 SWAP1 POP JUMP JUMPDEST PUSH0 DUP2 SWAP1 POP DUP2 PUSH0 MSTORE PUSH1 0x20 PUSH0 KECCAK256 SWAP1 POP SWAP2 SWAP1 POP JUMP JUMPDEST PUSH0 PUSH1 0x20 PUSH1 0x1F DUP4 ADD DIV SWAP1 POP SWAP2 SWAP1 POP JUMP JUMPDEST PUSH0 DUP3 DUP3 SHL SWAP1 POP SWAP3 SWAP2 POP POP JUMP JUMPDEST PUSH0 PUSH1 0x8 DUP4 MUL PUSH2 0xC2D PUSH32 0xFFFFFFFFFFFFFFFFFFFFFFFFFFFFFFFFFFFFFFFFFFFFFFFFFFFFFFFFFFFFFFFF DUP3 PUSH2 0xBF2 JUMP JUMPDEST PUSH2 0xC37 DUP7 DUP4 PUSH2 0xBF2 JUMP JUMPDEST SWAP6 POP DUP1 NOT DUP5 AND SWAP4 POP DUP1 DUP7 AND DUP5 OR SWAP3 POP POP POP SWAP4 SWAP3 POP POP POP JUMP JUMPDEST PUSH0 DUP2 SWAP1 POP SWAP2 SWAP1 POP JUMP JUMPDEST PUSH0 PUSH2 0xC72 PUSH2 0xC6D PUSH2 0xC68 DUP5 PUSH2 0xA09 JUMP JUMPDEST PUSH2 0xC4F JUMP JUMPDEST PUSH2 0xA09 JUMP JUMPDEST SWAP1 POP SWAP2 SWAP1 POP JUMP JUMPDEST PUSH0 DUP2 SWAP1 POP SWAP2 SWAP1 POP JUMP JUMPDEST PUSH2 0xC8B DUP4 PUSH2 0xC58 JUMP JUMPDEST PUSH2 0xC9F PUSH2 0xC97 DUP3 PUSH2 0xC79 JUMP JUMPDEST DUP5 DUP5 SLOAD PUSH2 0xBFE JUMP JUMPDEST DUP3 SSTORE POP POP POP POP JUMP JUMPDEST PUSH0 SWAP1 JUMP JUMPDEST PUSH2 0xCB3 PUSH2 0xCA7 JUMP JUMPDEST PUSH2 0xCBE DUP2 DUP5 DUP5 PUSH2 0xC82 JUMP JUMPDEST POP POP POP JUMP JUMPDEST JUMPDEST DUP2 DUP2 LT ISZERO PUSH2 0xCE1 JUMPI PUSH2 0xCD6 PUSH0 DUP3 PUSH2 0xCAB JUMP JUMPDEST PUSH1 0x1 DUP2 ADD SWAP1 POP PUSH2 0xCC4 JUMP JUMPDEST POP POP JUMP JUMPDEST PUSH1 0x1F DUP3 GT ISZERO PUSH2 0xD26 JUMPI PUSH2 0xCF7 DUP2 PUSH2 0xBD1 JUMP JUMPDEST PUSH2 0xD00 DUP5 PUSH2 0xBE3 JUMP JUMPDEST DUP2 ADD PUSH1 0x20 DUP6 LT ISZERO PUSH2 0xD0F JUMPI DUP2 SWAP1 POP JUMPDEST PUSH2 0xD23 PUSH2 0xD1B DUP6 PUSH2 0xBE3 JUMP JUMPDEST DUP4 ADD DUP3 PUSH2 0xCC3 JUMP JUMPDEST POP POP JUMPDEST POP POP POP JUMP JUMPDEST PUSH0 DUP3 DUP3 SHR SWAP1 POP SWAP3 SWAP2 POP POP JUMP JUMPDEST PUSH0 PUSH2 0xD46 PUSH0 NOT DUP5 PUSH1 0x8 MUL PUSH2 0xD2B JUMP JUMPDEST NOT DUP1 DUP4 AND SWAP2 POP POP SWAP3 SWAP2 POP POP JUMP JUMPDEST PUSH0 PUSH2 0xD5E DUP4 DUP4 PUSH2 0xD37 JUMP JUMPDEST SWAP2 POP DUP3 PUSH1 0x2 MUL DUP3 OR SWAP1 POP SWAP3 SWAP2 POP POP JUMP JUMPDEST PUSH2 0xD77 DUP3 PUSH2 0xA3A JUMP JUMPDEST PUSH8 0xFFFFFFFFFFFFFFFF DUP2 GT ISZERO PUSH2 0xD90 JUMPI PUSH2 0xD8F PUSH2 0x802 JUMP JUMPDEST JUMPDEST PUSH2 0xD9A DUP3 SLOAD PUSH2 0xBA1 JUMP JUMPDEST PUSH2 0xDA5 DUP3 DUP3 DUP6 PUSH2 0xCE5 JUMP JUMPDEST PUSH0 PUSH1 0x20 SWAP1 POP PUSH1 0x1F DUP4 GT PUSH1 0x1 DUP2 EQ PUSH2 0xDD6 JUMPI PUSH0 DUP5 ISZERO PUSH2 0xDC4 JUMPI DUP3 DUP8 ADD MLOAD SWAP1 POP JUMPDEST PUSH2 0xDCE DUP6 DUP3 PUSH2 0xD53 JUMP JUMPDEST DUP7 SSTORE POP PUSH2 0xE35 JUMP JUMPDEST PUSH1 0x1F NOT DUP5 AND PUSH2 0xDE4 DUP7 PUSH2 0xBD1 JUMP JUMPDEST PUSH0 JUMPDEST DUP3 DUP2 LT ISZERO PUSH2 0xE0B JUMPI DUP5 DUP10 ADD MLOAD DUP3 SSTORE PUSH1 0x1 DUP3 ADD SWAP2 POP PUSH1 0x20 DUP6 ADD SWAP5 POP PUSH1 0x20 DUP2 ADD SWAP1 POP PUSH2 0xDE6 JUMP JUMPDEST DUP7 DUP4 LT ISZERO PUSH2 0xE28 JUMPI DUP5 DUP10 ADD MLOAD PUSH2 0xE24 PUSH1 0x1F DUP10 AND DUP3 PUSH2 0xD37 JUMP JUMPDEST DUP4 SSTORE POP JUMPDEST PUSH1 0x1 PUSH1 0x2 DUP9 MUL ADD DUP9 SSTORE POP POP POP JUMPDEST POP POP POP POP POP POP JUMP JUMPDEST PUSH0 PUSH1 0x40 DUP3 ADD SWAP1 POP DUP2 DUP2 SUB PUSH0 DUP4 ADD MSTORE PUSH2 0xE55 DUP2 DUP6 PUSH2 0xA62 JUMP JUMPDEST SWAP1 POP DUP2 DUP2 SUB PUSH1 0x20 DUP4 ADD MSTORE PUSH2 0xE69 DUP2 DUP5 PUSH2 0xA62 JUMP JUMPDEST SWAP1 POP SWAP4 SWAP3 POP POP POP JUMP JUMPDEST PUSH32 0x4E487B7100000000000000000000000000000000000000000000000000000000 PUSH0 MSTORE PUSH1 0x11 PUSH1 0x4 MSTORE PUSH1 0x24 PUSH0 REVERT JUMPDEST PUSH0 PUSH2 0xEA9 DUP3 PUSH2 0xA09 JUMP JUMPDEST SWAP2 POP PUSH2 0xEB4 DUP4 PUSH2 0xA09 JUMP JUMPDEST SWAP3 POP DUP3 DUP3 ADD SWAP1 POP DUP1 DUP3 GT ISZERO PUSH2 0xECC JUMPI PUSH2 0xECB PUSH2 0xE72 JUMP JUMPDEST JUMPDEST SWAP3 SWAP2 POP POP JUMP INVALID LOG2 PUSH5 0x6970667358 0x22 SLT KECCAK256 0xDB BLOBHASH 0x4C DUP8 0x28 PUSH5 0xDD9835CF8 0xD0 CODECOPY 0xA6 0x2C SWAP10 LT PUSH12 0x5B42565691758C5E72B9A16D 0xD9 PREVRANDAO PUSH5 0x736F6C6343 STOP ADDMOD BYTE STOP CALLER "
				},
				"gasEstimates": {
					"creation": {
						"codeDepositCost": "769600",
						"executionCost": "803",
						"totalCost": "770403"
					},
					"external": {
						"checkTokenBalance(address)": "2829",
						"credentials(address)": "infinite",
						"issueCredential(address,string,string,string)": "infinite",
						"rewardTokens(address,uint256)": "infinite",
						"tokenBalance(address)": "2890",
						"verifyCredential(address)": "infinite"
					}
				},
				"methodIdentifiers": {
					"checkTokenBalance(address)": "126cbe60",
					"credentials(address)": "6016dd4a",
					"issueCredential(address,string,string,string)": "049a380d",
					"rewardTokens(address,uint256)": "81a4af15",
					"tokenBalance(address)": "eedc966a",
					"verifyCredential(address)": "70dd0dbc"
				}
			},
			"storageLayout": {
				"storage": [
					{
						"astId": 15,
						"contract": "e-learning.sol:ElearningPlatform",
						"label": "credentials",
						"offset": 0,
						"slot": "0",
						"type": "t_mapping(t_address,t_struct(Credential)10_storage)"
					},
					{
						"astId": 19,
						"contract": "e-learning.sol:ElearningPlatform",
						"label": "tokenBalance",
						"offset": 0,
						"slot": "1",
						"type": "t_mapping(t_address,t_uint256)"
					}
				],
				"types": {
					"t_address": {
						"encoding": "inplace",
						"label": "address",
						"numberOfBytes": "20"
					},
					"t_bool": {
						"encoding": "inplace",
						"label": "bool",
						"numberOfBytes": "1"
					},
					"t_mapping(t_address,t_struct(Credential)10_storage)": {
						"encoding": "mapping",
						"key": "t_address",
						"label": "mapping(address => struct ElearningPlatform.Credential)",
						"numberOfBytes": "32",
						"value": "t_struct(Credential)10_storage"
					},
					"t_mapping(t_address,t_uint256)": {
						"encoding": "mapping",
						"key": "t_address",
						"label": "mapping(address => uint256)",
						"numberOfBytes": "32",
						"value": "t_uint256"
					},
					"t_string_storage": {
						"encoding": "bytes",
						"label": "string",
						"numberOfBytes": "32"
					},
					"t_struct(Credential)10_storage": {
						"encoding": "inplace",
						"label": "struct ElearningPlatform.Credential",
						"members": [
							{
								"astId": 3,
								"contract": "e-learning.sol:ElearningPlatform",
								"label": "courseName",
								"offset": 0,
								"slot": "0",
								"type": "t_string_storage"
							},
							{
								"astId": 5,
								"contract": "e-learning.sol:ElearningPlatform",
								"label": "studentName",
								"offset": 0,
								"slot": "1",
								"type": "t_string_storage"
							},
							{
								"astId": 7,
								"contract": "e-learning.sol:ElearningPlatform",
								"label": "credentialHash",
								"offset": 0,
								"slot": "2",
								"type": "t_string_storage"
							},
							{
								"astId": 9,
								"contract": "e-learning.sol:ElearningPlatform",
								"label": "isValid",
								"offset": 0,
								"slot": "3",
								"type": "t_bool"
							}
						],
						"numberOfBytes": "128"
					},
					"t_uint256": {
						"encoding": "inplace",
						"label": "uint256",
						"numberOfBytes": "32"
					}
				}
			},
			"userdoc": {
				"kind": "user",
				"methods": {},
				"version": 1
			}
		}
	}
}